:1000000000800020A9010000D5010000D5010000FA
:10001000D5010000D5010000D5010000D501000088
:10002000D5010000D5010000D5010000D501000078
:10003000D5010000D5010000D5010000D501000068
:1000400031100000D5010000D5010000D5010000ED
:10005000D5010000D5010000D5010000D501000048
:10006000D5010000D5010000D5010000D501000038
:10007000D5010000D5010000D5010000D501000028
:10008000D5010000D5010000D5010000D501000018
:10009000D5010000D5010000D5010000D501000008
:1000A000D5010000D501000059190000D50100005C
:1000B000D5010000D5010000D5010000D5010000E8
:1000C000D5010000D5010000D5010000D5010000D8
:1000D000D5010000D5010000D5010000D5010000C8
:1000E00010B5054C237833B9044B13B10448AFF372
:1000F00000800123237010BD7C0000200000000060
:10010000EC28000008B5064B1BB106480649AFF3C2
:1001100000800648036813B1054B03B1984708BD3A
:1001200000000000EC280000800000207800002083
:1001300000000000154B002B08BF134B9D46A3F594
:10014000803A00218B460F461348144A121A02F0D7
:100150008FFB0F4B002B00D098470E4B002B00D08D
:1001600098470020002104000D000D48002802D00F
:100170000C48AFF3008002F055FB2000290001F08D
:1001800085FC02F03BFB00BF00000800008000205F
:1001900000000000000000007C000020C0000020E3
:1001A0000000000000000000064880470649074A9A
:1001B000074B9A42BEBF51F8040B42F8040BF8E714
:1001C000FFF7B8FF9D030000F828000000000020A2
:1001D0007C000020FEE700BF2A4AD36A03F4705374
:1001E000B3F5805F2AD0B3F5005F24D0B3F5006F7C
:1001F00011D0D36803F4E063B3F5007F3FD020D97A
:10020000B3F5806F39D0B3F5A06F34D0B3F5407F2C
:1002100025D0002101E01C4B19681A4B1B4A1868B5
:100220005B68C0F382300130B1FBF0F003F00F03E4
:10023000D84010607047164B1968EEE74FF4004144
:10024000EBE773B1B3F5807FE3D1124B124AD96C5F
:10025000124BB1F1985F34BF11461946DDE71049E2
:10026000DBE70C4B0F4AD96C0F4BB1F1985F34BFF1
:1002700011461946D1E70D49CFE70D49CDE70D49A4
:10028000CBE700BF00800C4004000020AC00002041
:1002900000000020B081E00FC0CF6A0040B56400CC
:1002A000809FD50040420F00804F1200003FAB01FD
:1002B000406F4001C0D8A70000487047006CDC02C6
:1002C000274AD36A03F47053B3F5805F24D0B3F5A3
:1002D000005F1ED0B3F5006F11D0D36803F4E06364
:1002E000B3F5007F39D01AD9B3F5806F33D0B3F5A9
:1002F000A06F2ED0B3F5407F1FD0002001E0194B36
:100300001868174B1B68C3F382330133B0FBF3F05B
:100310007047154B1868F4E74FF40040F1E773B1EC
:10032000B3F5807FE9D1114B114AD86C114BB0F174
:10033000985F34BF10461846E3E70F48E1E70B4BE0
:100340000E4AD86C0E4BB0F1985F34BF1046184679
:10035000D7E70C48D5E70C48D3E70C48D1E700BFF6
:1003600000800C400400002000000020B081E00F5D
:10037000C0CF6A0040B56400809FD50040420F00A6
:10038000804F1200003FAB01406F4001C0D8A70072
:10039000014B1868704700BF04000020704700BF81
:1003A0004FF40040704700BF4FF47A70704700BFB1
:1003B000014B1868704700BF00000020036823F05D
:1003C00001030360704700BF036843F0010303604B
:1003D000704700BF10B4046842EA012224F0080408
:1003E00044EAC30303605DF8044BC261704700BF79
:1003F000436823F0F7031A4342EA01114160704752
:1004000000F10473F0B45B014C7A00220E7A1A609A
:100410004A68240444EA46448E7ACD7A0F7844EA46
:10042000026291F80CC04C7842EA06260A6946EA54
:100430000516FF074D7B46EA8C06097D47EA847462
:100440001202344342EA054204604260F0BC196083
:10045000704700BF08B500F00F03013B062B7DD8A5
:10046000DFE803F03C4C5B7C7C6A0400484BDB6AB1
:1004700003F46033B3F5803F74D0B3F5003F6FD021
:10048000B3F5004F0CBF08230123424A904260D0CD
:10049000414A904203D13E4B9B6AC3F38103032B35
:1004A0001AD8DFE803F0130F0B02FFF795FE3B4B62
:1004B0003B4A1B6812680133D84008BDBDE80840BC
:1004C000FFF776BFBDE80840FFF76ABF314B98429F
:1004D0004CD0314B984252D0002008BD2C4BDB6AE7
:1004E00003F47053B3F5805F3AD0B3F5005F39D0B1
:1004F000B3F5006F0CBF04230523C6E7244A936AB3
:1005000003F00303022BC0D0032B2DD0012B27D0E7
:10051000936ADA030ED50923B7E71D4A936A03F0FD
:100520000C03082B1ED00C2B1ED0042B18D0936A62
:10053000DB02F0D40123A8E7154B1B6813F08053AE
:100540001BD0144AB3F1805F0CBF082301239042F3
:100550009ED10F4B9B6A03F00303A0E7002394E7AF
:10056000032392E7022390E706238EE7084B10202F
:100570009B6A33FA00F006D108BD072385E7044BD8
:1005800014209B6AF5E7BDE80840FFF70DBF00BFE8
:1005900000800C400200180003001A00780090430D
:1005A000A000904300F00F00013806284ED8DFE885
:1005B00000F01424334D4D420400294BDB6A03F450
:1005C0006033B3F5803F43D0B3F5003F42D0B3F57D
:1005D000004F0CBF082001207047214BDB6A03F459
:1005E0007053B3F5805F35D0B3F5005F30D0B3F50D
:1005F000006F0CBF042005207047194B986A00F06B
:100600000300022825D0032826D0012822D09B6A87
:10061000DA030ED509207047114A936A03F00C03E0
:10062000082B15D00C2B17D0042B13D0936ADB02A8
:10063000F0D4012070470A4B1B6813F080530DD093
:10064000B3F1805F0CBF0820012070470020704785
:10065000022070470320704706207047072070472C
:1006600000800C4000F47810B0F5A01F08B500F031
:1006700093800ED8B0F5402F7ED021D8B0F5003F42
:1006800076D0B0F5802F00F0B08000287BD000201D
:1006900008BDB0F5001F00F09A8039D8B0F5C01F32
:1006A00061D0B0F5D01F72D0B0F5B01FEFD1644863
:1006B000FFF7D0FE634B1B6FC3F30113D84008BD97
:1006C000B0F5801F37D0B0F5901F6ED0B0F5602F19
:1006D000DDD15C4B5B6903F4E063B3F5007F00F0B0
:1006E0009E8040F28A80B3F5C06F00F0A480B3F51D
:1006F000E06F00F09E80B3F5407FC8D1524B534A63
:10070000D86C534BB0F1985F34BF1046184608BD03
:10071000B0F5181F18D0B0F5201F4FD0B0F5101F3E
:10072000B5D14C48FFF796FE464B9B6EC3F30133A1
:100730000433D84008BD4748FFF78CFE414B9B6E01
:10074000C3F30313D84008BD4248FFF783FE3D4B77
:100750009A6EDB6FC2F30132D04003F0070301331E
:10076000B0FBF3F008BD3B48BDE80840FFF772BEA0
:10077000BDE80840FFF730BD324A136813F08053DC
:1007800046D0002B83D0BDE80840FFF799BD2C4828
:10079000BDE80840FFF75EBE2948FFF75BFE294B26
:1007A0001B6F03F00303D84008BD2A48FFF752FE31
:1007B000244B9B6EC3F30323D84008BD2548FFF7A5
:1007C00049FE204B9B6E03F00303D84008BD22482E
:1007D000FFF7E8FE032817D00828D4D002287FF4BA
:1007E00056AFBDE80840FFF7E3BDFFF769FD154BC5
:1007F0009B6803F00F03D84008BDF3B1B3F5807FC9
:100800007FF445AF154808BDBDE80840FFF7C8BDF7
:10081000536903F4E063B3F5007F7FF462AF0A4BE2
:100820000F4AD86C0F4BB0F1985F34BF1046184692
:1008300008BD0D4808BD0D4808BD0D4808BD00BFE6
:1008400003001A0000800C40B081E00F40420F000E
:10085000804F12000200180007232000C0D8A70014
:10086000C0CF6A0040B56400406F4001003FAB015B
:10087000809FD50070B5C0F30323013B82B00446CE
:10088000092B11D8DFE803F022192410101D0510E0
:100890001020274A1020274DC4F304346B6DDB076A
:1008A00004D522449200116002B070BD2B6D184235
:1008B000F7D02B6D1842F9D1F3E71F4AC4F3043483
:1008C000EFE71E4A0120E6E71D4AF7E71D4AF5E774
:1008D0000191FFF781FC1C4B0199DA6CC2F30742CE
:1008E0004A2A0FD0792A0DD0184B482A18BF002366
:1008F000174A9842174D94BF002301231360164AEC
:100900002B60DBE7154A114D16699369D26906F031
:100910003F06C2F3031242EA062603F0F003104A30
:100920003343B3F5017F34BF2B461346E0E700BFE6
:100930000003E41000800C402002E410C002E41028
:10094000C003E4104000E410B081E00F0048E8016B
:1009500078009043A00090430002E410D0FF0FE025
:1009600000366E0138B500F00F04631E062B52D816
:10097000DFE803F07A626251515D5600012202FA0B
:1009800003F313F0130F00F09680A84B984240F247
:100990003C820420A64B5A6822F0070202435A60A8
:1009A00009B10022DA63A34BA3485C62FFF75AFE49
:1009B000A24BDB6CC3F307434A2B00F08881792BF1
:1009C00000F085819949482B18BF002188429C4A34
:1009D0009C4B94BF002001201060186000F056FC72
:1009E000FFF7FAFB924B41F67131DA6BD9635B6822
:1009F00003F00703042B40F25D818C4B984240F2D8
:100A0000EC8105208A4B596821F0070101435960A8
:100A10000AB10022DA638A4A8A4B12681B6838BD21
:100A200003294ED0082973D002295AD038BD07298E
:100A300023D0082966D038BD01390829F6D801A28B
:100A400052F821F0070C00000F0C00005D0C0000B4
:100A50002D0A00002D0A0000770C00002D0A00006E
:100A60002D0A0000E50B000002390329DED8DFE87B
:100A700011F00A00B50056008D006E4B1A6822F086
:100A800080521A60C7E7704A04244FF480736949A2
:100A90000B621368002BFCD000F0F8FBFFF70CFC96
:100AA000634B41F67132D96BDA635B6803F007037D
:100AB000042B7FF663AF5D4B984240F29681052090
:100AC00068E75C4B4021614A19621368002BFCD037
:100AD00000F0DCFB574A60235362D36A9903FCD5CC
:100AE00099E7544B4FF48071574A19621368002BF1
:100AF000FCD000F0CBFB4F4A40235362D36AD803AB
:100B0000FCD588E74B4B1A6842F080521A6082E7A6
:100B1000484A20235362D36A1B04FCD57BE7474B2A
:100B2000DB6CC3F307434A2B00F00481792B00F000
:100B300001814748482B18BF0120404BDB6CC3F3B1
:100B400007434A2B00F0E280792B00F0DF80374A20
:100B5000482B0CBF1346002383423A4A38492CBF26
:100B6000002301230B601360FFF712FC2F4B0224BC
:100B70009842304B1A6896BF22F0600242F0600241
:100B800042F020021A60334A042380E72B4BDB6CCF
:100B9000C3F307434A2B00F0F680792B00F0F38073
:100BA0002B48482B18BF0120244BDB6CC3F30743B1
:100BB0004A2B00F0D480792B00F0D1801B4A482BBF
:100BC00018BF002290421E4B1E4994BF00220122F2
:100BD00001241A600A6023461F4A58E71B4A03246F
:100BE000402354E74FF480114FF480330022022C4D
:100BF00000F082800F4A936A23F4801323F00C03E1
:100C00000B43936207E700210B460A46EFE7094BC7
:100C10004FF480710C4A19621368002BFCD000F06D
:100C200035FB082100230222E1E700BF0048E8016C
:100C300000000C4000800C4000430200B081E00F37
:100C400078009043A0009043A40590439C059043F6
:100C50000148E8018C059043840590436F4B402187
:100C60006F4A19621368002BFCD000F00FFB0421BF
:100C700000230122BBE7FFF7AFFA6A4BDB6CC3F33B
:100C800007434A2B00F09480792B00F09180664D49
:100C9000482B18BF0025A8426449654B654A94BF9C
:100CA000002001200125086018600C211560002338
:100CB00003229CE7012101FA03F313F0130F3FF421
:100CC0009CAE594B984240F2988004209AE65A4BC9
:100CD000554A1C699969DB6904F03F04C3F30313A7
:100CE00043EA042401F0F001544B2143B1F5017FA4
:100CF00034BF1146194669E648481343816A21F416
:100D0000803121F003011943816284E64A4A464B4F
:100D100014699169D26904F03F04C2F3031242EAF4
:100D2000042401F0F001454A2143B1F5017F28BFB9
:100D3000134611E7404B424A18699969DB6900F094
:100D40003F00C3F3031343EA002001F0F0013D4BE1
:100D50000843B0F5017F34BF10461846EDE6364B28
:100D6000314A1C699969DB6904F03F04C3F303133A
:100D700043EA042401F0F001304B2143B1F5017F37
:100D800028BF1A461EE72C4B2D4A18699969DB6962
:100D900000F03F00C3F3031343EA002001F0F00129
:100DA000284B0843B0F5017F34BF10461846FBE6D8
:100DB000214B1D4A1D699969DB6905F03F05C3F3A5
:100DC000031343EA052501F0F0011C4B0D43B5F573
:100DD000017F34BF15461D465DE71B4B1B4903448D
:100DE0008B4294BF032002200CE6174B174A0344A2
:100DF000934294BF03200220CCE5134B13490344D4
:100E00008B428CBF00200120FCE50F4B0F4A0344AE
:100E100093428CBF00200120BCE500BF00800C4045
:100E20009C059043B081E00F0048E80178009043B2
:100E3000A000904310089043D0FF0FE000366E01F1
:100E40000148E80101366E01FFDB0BFFFF23F400D0
:100E500038B50446052804D8DFE800F0272B3035E4
:100E6000390438BD684B1D6BC5F30725674AD26A44
:100E700002F47052B2F5805F64D0B2F5005F61D0C9
:100E8000B2F5006F5ED0FFF717FA614B41F6713291
:100E9000D96BDA635B6803F00703042B1BD95D4B46
:100EA000984240F2A88005201FE0574BDD6AEDB262
:100EB000DCE7554BDD6AC5F30725D7E7524BDD6A02
:100EC000C5F30745D2E7504BDD6A2D0ECEE74E4BFA
:100ED0001D6BEDB2CAE7012202FA03F313F0130F00
:100EE000DDD04C4B98426ED90420494B5A6822F011
:100EF000070202435A6009B10022DA63434AD36809
:100F000023F4FF6323F0070343EA04242543D56059
:100F1000FFF762F93E4B41F67131DA6BD9635B68DA
:100F200003F00703042B43D93A4B98425BD90520C1
:100F3000374B596821F007010143596062B1002223
:100F4000DA6309E0314AD36823F4FF6323F007032F
:100F500043EA04242543D560FFF73EF92A4BDB6CB6
:100F6000C3F307434A2B0ED0792B0CD02949482BC9
:100F700018BF00218842284A284B94BF0020012036
:100F80001060186038BD264B224A19699C69DB69DC
:100F900001F03F01C3F3031343EA012104F0F0041D
:100FA000204B2143B1F5017F34BF11461946E1E7DB
:100FB000012101FA03F313F0130FB5D0154B98423A
:100FC00009D90420B4E7184B184A034493428CBF54
:100FD0000020012089E7144B144903448B428CBF45
:100FE00000200120A4E7104B104903448B4294BF1A
:100FF000032002209CE70C4B0C4A0344934294BF0D
:101000000320022071E700BFB081E00F00800C4098
:1010100000000C400048E80178009043A000904395
:10102000D0FF0FE000366E01FFDB0BFFFF23F40063
:101030001C4B1D4A41F20C0112685858996B2DE95E
:10104000F0470240194F984602EA010422EA010AD9
:101050004FF00209FCB100250126E30717D506FA77
:1010600005F2D8F808303A6003EB0513DB68284630
:101070006BB11A7AD3F800C0111C82F0010218BFBC
:1010800001211A72BCF1000F01D05A68E0476408D0
:1010900005F10105E1D1B9F1010901D05446D9E7C3
:1010A000BDE8F08700200C4000300C4008300C40B8
:1010B000204B45F60E01204A10B4D3F88440C3F803
:1010C0008410126840F2551102F470501140B0F5CE
:1010D000805F04F00104196202F0010221D0B0F532
:1010E000005F16D0B0F5006F0BD012B9114B022281
:1010F0001A621CB10F4B0022C3F884205DF8044B28
:1011000070471846C36A0B491B07FBD502234B6285
:10111000EBE71846C36A07499B05FBD504234B62DE
:10112000E3E71846C36A03491B06FBD503234B625A
:10113000DBE700BF00800C40980000201F4B2049D7
:10114000DB6A204A70B40B6016691F4B46F0040638
:1011500016611E699A69DB6906F03F06C3F3031343
:1011600043EA062302F0F0021343B3F5827F0BD368
:10117000B3F5017F08D0002230BFA2B9C0B90B6817
:101180005B0518D570BC7047104B114C1D680122CF
:101190002C40C3F880405D6825F04605C3F88450B4
:1011A00030BF002AEAD0094B1C605D600028E6D001
:1011B00070BCFFF77DBF70BCFFF70EB800800C401D
:1011C0009800002000ED00E0D0FF0FE000E100E01B
:1011D0009CF1FD00274B2849DA6AF0B40A60D3F885
:1011E00084204FF42075D20748BF002245F60E0632
:1011F000C3F884601D6248BFC3F884201F4A204B97
:10120000156945F0040515611D699A69DB6905F0EA
:101210003F05C3F3031343EA052302F0F00213432F
:10122000B3F5827F0BD3B3F5017F08D0002230BF26
:10123000A2B9C0B90B685B0518D5F0BC7047114B5B
:10124000114C1D6801222C40C3F880405F6827F0D4
:101250004607C3F8847030BF002AEAD0094B1C60EF
:101260005F600028E6D0F0BCFFF722BFF0BCFEF7BD
:10127000B3BF00BF00800C409800002000ED00E0EC
:10128000D0FF0FE000E100E09CF1FD00024A034BBB
:10129000D26A1A60704700BF00800C40980000209E
:1012A000F0B4B2BBC40007291DD88D004FF00F0C5D
:1012B0000CFA05FC02FA05F72518AD0005F180458A
:1012C00005F5C0456E6826EA0C063E436E6042B9DD
:1012D0008BBB012303FA01F120441D4B8000034422
:1012E0005960F0BC704701F18045083DAD004FF0FA
:1012F0000F0C0CFA05FC02FA05F72518AD0005F1F4
:10130000804505F5C045AE6826EA0C063E43AE6052
:10131000DDE701268E40C4003BB12518AD0005F184
:10132000804505F5C0452E61BDE72718084DBF0073
:101330003D446E60B7E7012303FA01F120448000C9
:1013400000F1804000F5C0400161F0BC704700BF73
:101350001060004029B1012902D1143002607047A9
:1013600070471030026070470A7870B422B9836801
:10137000DC0744BF022343604B788E78002BCC7887
:1013800014BF4FF4A0554FF4806514BF4FF4805341
:101390000023002E18BF2B460CB143F400630C79D8
:1013A0000CB143F400734C790CB143F480738C7925
:1013B0000CB143F04003CC790CB143F080034D7A7B
:1013C0000E7A8C7A2D0145EA860121430B43036096
:1013D00022B18368DB075CBF0123436070BC7047A8
:1013E00029B1012902D11C300260704770471830C2
:1013F0000260704710B4436B002BFCD101241E2106
:101400001F22046341605DF8044B03600361436184
:101410008361C361C3628262036370470B4B596986
:101420001A6901F00F01C2F3811242EA810282704F
:101430001A6902F03F0242709A69DB6902F0F00219
:10144000C3F3031313430370704700BFD0FF0FE0D3
:101450000B78F0B40BB902224260CA788C780E7A0D
:1014600012044D7842EA04628C79CF7932434E7A85
:10147000002D42EA84228D7A0CBF0024402442EAE7
:101480000722002ECE7A0F7942EA04020CBF002414
:101490008024002D42EA04024D790CBF0024202450
:1014A000002E42EA04020CBF002610260C7B002FFF
:1014B0000CBF00214FF400513243002D42EA0102DB
:1014C0000CBF00214FF08051002C42EA01020CBFFA
:1014D000002108210A430021416202600BB101236F
:1014E0004360F0BC704700BF70B40023022640F296
:1014F00073754FF6FF744CF680610F2246600360EF
:10150000C36085610362C461436270BC036343636B
:10151000C36303644364C36403654365C365C0F880
:101520008810036743678367C367C0F884207047E8
:101530002DE9F0437F488DB00121FFF79BF97E48EC
:101540000121FFF797F97D480121FFF793F97C48C6
:101550000221FFF707FA7B480121FFF78BF97A4850
:101560000121FFF787F9794A01AB10685168B2F899
:1015700008E003C3764F917A764E002401250222BB
:101580009970A3F800E0089404948DF82320059442
:10159000069409940A948DF810508DF81C508DF81B
:1015A00020508DF82C5021467C626B4848F2010295
:1015B0007462FFF7CFFE21462A466748FFF710FF07
:1015C0002A4629466448FFF70BFF384604A9FFF76F
:1015D0003FFF304608A9FFF73BFF01A95E48FFF730
:1015E000C3FE5D4BDC68012CFCD1594D594E686A35
:1015F00000F036FFD6F824800746404600F030FF62
:10160000D5F81C808146404600F02AFF0146484636
:1016100000F07EFF0146384600F072FE8046284604
:10162000FFF762FF3046FFF75FFF4B48FFF7E2FE30
:1016300040482146FFF71EF93F482146FFF71AF9B7
:101640003E482146FFF716F93E480021FFF712F900
:101650003D480021FFF70EF939480921FFF782F9CB
:1016600038482146FFF706F9002737482146FFF79B
:1016700001F96F623946384840F2E9327762FFF784
:1016800069FE394634482246FFF7AAFE2246214623
:101690003148FFF7A5FE284604A9FFF7D9FE3046DA
:1016A00008A9FFF7D5FE01A92B48FFF75DFE2A4ADE
:1016B000D368012BFCD1264C264D606A00F0D0FE89
:1016C0006F6A0646384600F0CBFEE7698146384629
:1016D00000F0C6FE0146484600F01AFF01463046BB
:1016E00000F00EFE06462046FFF7FEFE2846FFF7F6
:1016F000FBFE1948FFF77EFE12480021FFF7BAF8FB
:1017000011480021FFF7B6F80A480021FFF7B2F8A8
:1017100009480021FFF7AEF808480021FFF7AAF8B2
:101720004046314600F0A8FF0C4B18600DB0BDE8F4
:10173000F08300BF408104000052040000620400F6
:101740000200180000430200602612009C280000DE
:10175000000001400004014000200840A0000020DB
:1017600038B50720FFF774FBFFF7E2FE254B1B7827
:10177000022B24D8244B4FF07E52244802211A60B9
:10178000FFF7F0F82148FEF76DFF00EBC000B0F561
:10179000803F1F4D4FF0010332DB2A681A445B0083
:1017A00090FBF3F1B1F5803F144602F10102F6DA45
:1017B000184A916E41EA042494662B600AE01348AB
:1017C0000921FFF7CFF8144B0F491868104B01227D
:1017D00008601A6011480121FFF74CF810480121F8
:1017E000FFF748F80F480121FFF744F80E480121A0
:1017F000FFF740F8BDE838400C480121FFF73AB840
:101800002C68D5E70C00002008000020020018001A
:10181000A800002000800C40A0000020004302002F
:101820006026120000D204004081040000920400EF
:101830002DE9F0433E4B85B01A7872B63D490B68EE
:10184000581C67D03C4850F82210013140F8221053
:1018500003B962B63948FEF705FF00F001FE384BC8
:10186000DFF8F080196800F053FE00F0A1FF00F0EF
:10187000A1FA344B064618680F4600F09BFA324B2B
:1018800004460D46186859680DF1040EAEE80300D1
:1018900093F80AC0B3F808908EF802C0AEF8009032
:1018A000304639460022294B00F0EAFA2B46224600
:1018B00000F010FC00F0F6FC002102464046FFF765
:1018C00049FD19A3D3E900233046394600F0D8FA80
:1018D0002B46224600F0FEFB00F0E4FC012102460C
:1018E0004046FFF737FD01A94046FFF73DFDD8F818
:1018F0002C20174B42F00402C8F82C20D8F82C10EA
:101900004FF0806241F00201C8F82C101A6005B057
:10191000BDE8F083084B6FF0010453F822000C601F
:10192000013043F8220095E7FCA9F1D24D62703FE7
:101930000C0000209C000020B000002002001800D5
:1019400008000020A8000020A82800000000044093
:1019500000E100E000200840F8B572B62D4D2E4C95
:101960002B68581C1CBF01332B60E36A266A1E409B
:10197000022E42D00423294EA362B26892070BD4F0
:10198000274B4022C3F880202B68224A1BB1013B21
:10199000136003B962B6F8BD224C214A276830466D
:1019A000AFB1C2F8A430FEF709FD30461E49FEF77C
:1019B00027FD00210B460A463046FEF70BFD304658
:1019C00006210A22FEF714FD00232360D8E7C2F89F
:1019D000A030FEF7F3FC30461449FEF711FD3B46FC
:1019E000304639463A46FEF7F5FC30460A210622D3
:1019F000FEF7FEFC01232360C2E70848FEF7E4FC83
:101A0000074B4021054AA662D9679368D907FCD5E0
:101A1000BAE700BF9C0000200020084000100040F2
:101A200000600040A4000020CC280000B428000082
:101A300010B5094C09492046FEF7E2FC002120467A
:101A40000A460B46FEF7C6FC204606210A22BDE8E0
:101A50001040FEF7CDBC00BF00100040CC280000B5
:101A600010B50420024602210023FFF719FC0320D1
:101A7000062104220023FFF713FCBDE810400220DA
:101A8000062101220023FFF70BBC00BF00B51C4B51
:101A900083B01C686846FFF7C1FCB4F1805F0AD3CD
:101AA0009DF80030032B06D1164B1A6822F0500225
:101AB00042F010021A60144DFFF752FE134CFFF76C
:101AC000B7FEFFF7CDFFFFF7B3FF2A682E46002AC7
:101AD00000DDFEE76B68002B05DD236923F00403BE
:101AE000236130BFF3E7B3680120002B03DCFFF76D
:101AF00071FB3268EBE7FFF721FB3268E7E700BFD5
:101B0000FC81E00FC0800C40B000002000ED00E040
:101B100081F0004102E000BF83F0004330B54FEA9E
:101B200041044FEA430594EA050F08BF90EA020F0B
:101B30001FBF54EA000C55EA020C7FEA645C7FEA9E
:101B4000655C00F0E2804FEA5454D4EB5555B8BFC1
:101B50006D420CDD2C4480EA020281EA030382EA32
:101B6000000083EA010180EA020281EA0303362DC4
:101B700088BF30BD11F0004F4FEA01314FF4801C97
:101B80004CEA113102D0404261EB410113F0004FA9
:101B90004FEA03334CEA133302D0524263EB430360
:101BA00094EA050F00F0A780A4F10104D5F1200EFE
:101BB0000DDB02FA0EFC22FA05F2801841F1000159
:101BC00003FA0EF2801843FA05F359410EE0A5F12D
:101BD00020050EF1200E012A03FA0EFC28BF4CF05E
:101BE000020C43FA05F3C01851EBE37101F0004514
:101BF00007D54FF0000EDCF1000C7EEB00006EEB21
:101C00000101B1F5801F1BD3B1F5001F0CD34908AA
:101C10005FEA30004FEA3C0C04F101044FEA445201
:101C200012F5800F80F09A80BCF1004F08BF5FEA88
:101C3000500C50F1000041EB045141EA050130BD68
:101C40005FEA4C0C404141EB010111F4801FA4F10B
:101C50000104E9D191F0000F04BF01460020B1FA60
:101C600081F308BF2033A3F10B03B3F120020CDA98
:101C70000C3208DD02F1140CC2F10C0201FA0CF076
:101C800021FA02F10CE002F11402D8BFC2F1200CDB
:101C900001FA02F120FA0CFCDCBF41EA0C01904091
:101CA000E41AA2BF01EB0451294330BD6FEA0404DA
:101CB0001F3C1CDA0C340EDC04F11404C4F12002C5
:101CC00020FA04F001FA02F340EA030021FA04F3D7
:101CD00045EA030130BDC4F10C04C4F1200220FA2E
:101CE00002F001FA04F340EA0300294630BD21FA6C
:101CF00004F0294630BD94F0000F83F4801306BF32
:101D000081F480110134013D4EE77FEA645C18BF25
:101D10007FEA655C29D094EA050F08BF90EA020FBC
:101D200005D054EA000C04BF1946104630BD91EAB4
:101D3000030F1EBF0021002030BD5FEA545C05D1B7
:101D40004000494128BF41F0004130BD14F58004F6
:101D50003CBF01F5801130BD01F0004545F0FE416A
:101D600041F470014FF0000030BD7FEA645C1ABF9F
:101D7000194610467FEA655C1CBF0B46024650EAD6
:101D8000013406BF52EA033591EA030F41F4002102
:101D900030BD00BF90F0000F04BF0021704730B588
:101DA0004FF4806404F132044FF000054FF000015D
:101DB00050E700BF90F0000F04BF0021704730B51E
:101DC0004FF4806404F1320410F0004548BF4042F3
:101DD0004FF000013EE700BF42004FEAE2014FEA48
:101DE00031014FEA02701FBF12F07F4393F07F4F23
:101DF00081F06051704792F0000F14BF93F07F4F55
:101E0000704730B54FF4607401F0004521F0004197
:101E100020E700BF50EA010208BF704730B54FF01D
:101E200000050AE050EA010208BF704730B511F022
:101E3000004502D5404261EB41014FF4806404F15A
:101E400032045FEA915C3FF4DCAE4FF003025FEADC
:101E5000DC0C18BF03325FEADC0C18BF033202EB64
:101E6000DC02C2F1200300FA03FC20FA02F001FABE
:101E700003FE40EA0E0021FA02F11444C1E600BF5D
:101E800070B54FF0FF0C4CF4E06C1CEA11541DBF10
:101E90001CEA135594EA0C0F95EA0C0F00F0DEF8DB
:101EA0002C4481EA030621EA4C5123EA4C5350EAC0
:101EB000013518BF52EA033541F4801143F4801311
:101EC00038D0A0FB02CE4FF00005E1FB02E506F0A2
:101ED0000042E0FB03E54FF00006E1FB03569CF0F7
:101EE000000F18BF4EF0010EA4F1FF04B6F5007FFD
:101EF00064F5407404D25FEA4E0E6D4146EB06066F
:101F000042EAC62141EA55514FEAC52040EA5E50F7
:101F10004FEACE2EB4F1FD0C88BFBCF5E06F1ED8A1
:101F2000BEF1004F08BF5FEA500E50F1000041EBD8
:101F3000045170BD06F0004646EA010140EA020085
:101F400081EA0301B4EB5C04C2BFD4EB0C0541EAA7
:101F5000045170BD41F480114FF0000E013C00F3BC
:101F6000AB8014F1360FDEBF002001F0004170BDE0
:101F7000C4F10004203C35DA0C341BDC04F11404F9
:101F8000C4F1200500FA05F320FA04F001FA05F285
:101F900040EA020001F0004221F0004110EBD37052
:101FA00021FA04F642EB06015EEA430E08BF20EA7E
:101FB000D37070BDC4F10C04C4F1200500FA04F321
:101FC00020FA05F001FA04F240EA020001F00041B3
:101FD00010EBD37041F100015EEA430E08BF20EA26
:101FE000D37070BDC4F1200500FA05F24EEA020E6E
:101FF00020FA04F301FA05F243EA020321FA04F09D
:1020000001F0004121FA04F220EA020000EBD37053
:102010005EEA430E08BF20EAD37070BD94F0000F53
:102020000FD101F00046400041EB010111F4801F87
:1020300008BF013CF7D041EA060195F0000F18BF38
:10204000704703F00046520043EB030313F4801F74
:1020500008BF013DF7D043EA0603704794EA0C0F2E
:102060000CEA135518BF95EA0C0F0CD050EA410644
:1020700018BF52EA4306D1D181EA030101F00041C1
:102080004FF0000070BD50EA410606BF10461946E9
:1020900052EA430619D094EA0C0F02D150EA0136F5
:1020A00013D195EA0C0F05D152EA03361CBF104636
:1020B00019460AD181EA030101F0004141F0FE41D5
:1020C00041F470014FF0000070BD41F0FE4141F459
:1020D000780170BD70B54FF0FF0C4CF4E06C1CEA59
:1020E00011541DBF1CEA135594EA0C0F95EA0C0F0E
:1020F00000F0A7F8A4EB050481EA030E52EA0335C9
:102100004FEA013100F088804FEA03334FF08055E9
:1021100045EA131343EA12634FEA022245EA111516
:1021200045EA10654FEA00260EF000419D4208BFC7
:10213000964244F1FD0404F5407402D25B084FEA74
:102140003202B61A65EB03055B084FEA32024FF420
:1021500080104FF4002CB6EB020E75EB030E22BF7D
:10216000B61A754640EA0C005B084FEA3202B6EB3D
:10217000020E75EB030E22BFB61A754640EA5C00EC
:102180005B084FEA3202B6EB020E75EB030E22BF7C
:10219000B61A754640EA9C005B084FEA3202B6EB7D
:1021A000020E75EB030E22BFB61A754640EADC003C
:1021B00055EA060E18D04FEA051545EA16754FEA9E
:1021C00006164FEAC30343EA52734FEAC2025FEABC
:1021D0001C1CC0D111F4801F0BD141EA00014FF04B
:1021E00000004FF0004CB6E711F4801F04BF01431C
:1021F0000020B4F1FD0C88BFBCF5E06F3FF6AFAE38
:10220000B5EB030C04BFB6EB020C5FEA500C50F1C7
:10221000000041EB045170BD0EF0004E4EEA11314A
:1022200014EB5C04C2BFD4EB0C0541EA045170BD51
:1022300041F480114FF0000E013C90E645EA060E95
:102240008DE60CEA135594EA0C0F08BF95EA0C0FC3
:102250003FF43BAF94EA0C0F0AD150EA01347FF40B
:1022600034AF95EA0C0F7FF425AF104619462CE7E2
:1022700095EA0C0F06D152EA03353FF4FDAE104645
:10228000194622E750EA410618BF52EA43067FF496
:10229000C5AE50EA41047FF40DAF52EA43057FF426
:1022A000EBAE12E74FEA410212F5001215D211D53A
:1022B0006FF47873B3EB625212D94FEAC12343F043
:1022C000004343EA505311F0004F23FA02F018BFC5
:1022D000404270474FF00000704750EA013005D18E
:1022E00011F0004008BF6FF0004070474FF0000051
:1022F000704700BF80F0004002E000BF81F0004165
:1023000042001FBF5FEA410392EA030F7FEA226C9B
:102310007FEA236C6AD04FEA1262D2EB1363C1BF2B
:10232000D218414048404140B8BF5B42192B88BF9A
:10233000704710F0004F40F4000020F07F4018BFBD
:10234000404211F0004F41F4000121F07F4118BFDD
:10235000494292EA030F3FD0A2F1010241FA03FC85
:1023600010EB0C00C3F1200301FA03F100F000436D
:1023700002D5494260EB4000B0F5000F13D3B0F135
:10238000807F06D340084FEA310102F10102FE2AA4
:1023900051D2B1F1004F40EBC25008BF20F0010014
:1023A00040EA03007047490040EB000010F4000FC2
:1023B000A2F10102EDD1B0FA80FCACF1080CB2EB55
:1023C0000C0200FA0CF0AABF00EBC25052421843B4
:1023D000BCBFD0401843704792F0000F81F4000159
:1023E00006BF80F400000132013BB5E74FEA41032C
:1023F0007FEA226C18BF7FEA236C21D092EA030F98
:1024000004D092F0000F08BF0846704790EA010F11
:102410001CBF0020704712F07F4F04D1400028BF3E
:1024200040F00040704712F100723CBF00F5000020
:10243000704700F0004343F0FE4040F40000704756
:102440007FEA226216BF08467FEA23630146420202
:1024500006BF5FEA412390EA010F40F48000704715
:102460004FF0000304E000BF10F0004348BF4042BB
:102470005FEA000C08BF704743F0964301464FF0F7
:1024800000001CE050EA010208BF70474FF0000353
:102490000AE000BF50EA010208BF704711F0004394
:1024A00002D5404261EB41015FEA010C02BF844664
:1024B0000146002043F0B64308BFA3F18053A3F5C3
:1024C0000003BCFA8CF2083AA3EBC25310DB01FA0A
:1024D00002FC634400FA02FCC2F12002BCF1004F8E
:1024E00020FA02F243EB020008BF20F0010070471F
:1024F00002F1200201FA02FCC2F1200250EA4C0073
:1025000021FA02F243EB020008BF20EADC707047B8
:102510004FF0FF0C1CEAD0521EBF1CEAD15392EAC6
:102520000C0F93EA0C0F6FD01A4480EA010C4002A2
:1025300018BF5FEA41211ED04FF0006343EA5010FC
:1025400043EA5111A0FB01310CF00040B1F5000F3E
:102550003EBF490041EAD3715B0040EA010062F1ED
:102560007F02FD2A1DD8B3F1004F40EBC25008BFD7
:1025700020F00100704790F0000F0CF0004C08BFF5
:1025800049024CEA502040EA51207F3AC2BFD2F1C2
:10259000FF0340EAC250704740F400004FF00003D0
:1025A000013A5DDC12F1190FDCBF00F0004070470A
:1025B000C2F10002410021FA02F1C2F1200200FA48
:1025C00002FC5FEA310040F1000053EA4C0308BF0F
:1025D00020EADC70704792F0000F00F0004C02BF60
:1025E000400010F4000F013AF9D040EA0C0093F0DB
:1025F000000F01F0004C02BF490011F4000F013B35
:10260000F9D041EA0C018FE70CEAD15392EA0C0FA2
:1026100018BF93EA0C0F0AD030F0004C18BF31F00D
:10262000004CD8D180EA010000F00040704790F0E3
:10263000000F17BF90F0004F084691F0000F91F087
:10264000004F14D092EA0C0F01D142020FD193EA4D
:102650000C0F03D14B0218BF084608D180EA0100D5
:1026600000F0004040F0FE4040F40000704740F0B1
:10267000FE4040F4400070474FF0FF0C1CEAD0527F
:102680001EBF1CEAD15392EA0C0F93EA0C0F69D0DB
:10269000A2EB030280EA010C49024FEA402037D046
:1026A0004FF0805343EA111143EA10130CF000403D
:1026B0008B4238BF5B0042F17D024FF4000C8B422D
:1026C00024BF5B1A40EA0C00B3EB510F24BFA3EB0D
:1026D000510340EA5C00B3EB910F24BFA3EB9103DD
:1026E00040EA9C00B3EBD10F24BFA3EBD10340EA37
:1026F000DC001B0118BF5FEA1C1CE0D1FD2A3FF67D
:1027000050AF8B4240EBC25008BF20F00100704731
:102710000CF0004C4CEA50207F32C2BFD2F1FF03D4
:1027200040EAC250704740F400004FF00003013A05
:1027300037E792F0000F00F0004C02BF400010F4A9
:10274000000F013AF9D040EA0C0093F0000F01F0BD
:10275000004C02BF490011F4000F013BF9D041EADF
:102760000C0195E70CEAD15392EA0C0F08D1420212
:102770007FF47DAF93EA0C0F7FF470AF084676E7E5
:1027800093EA0C0F04D14B023FF44CAF08466EE7BE
:1027900030F0004C18BF31F0004CCAD130F000428C
:1027A0007FF45CAF31F000437FF43CAF5FE700BFE4
:1027B0004FEA4002B2F1FE4F0FD34FF09E03B3EB4E
:1027C00012620DD94FEA002343F0004310F0004F8E
:1027D00023FA02F018BF404270474FF000007047E4
:1027E00012F1610F01D1420205D110F0004008BF83
:1027F0006FF0004070474FF00000704708B5074B7E
:10280000044613B10021AFF30080054B1868836ABA
:1028100003B19847204600F033F800BF00000000E5
:10282000E828000070B50E4B0E4D0024ED1AAD10D7
:102830001E46AC4204D056F8242090470134F8E7F5
:1028400000F020F8084D094B0024ED1AAD101E468B
:10285000AC4204D056F8242090470134F8E770BD0C
:102860007000002070000020740000207000002024
:1028700002440346934202D003F8011BFAE7704773
:10288000FEE700BFF8B500BFF8BC08BC9E46704725
:10289000F8B500BFF8BC08BC9E46704701000000B8
:1028A0000101000000000100010000000100000023
:1028B000030000000001000000000000000006040A
:1028C000000100003D0000000000000000010000C9
:1028D00000000000000006040001000002000000EB
:1028E0000000000043000000100000200000000075
:0828F00044D8FF7F0100000045
:1028F80000800000006CDC020000803F0300000044
:1029080000000000000000000000000000000000BF
:1029180000000000000000000000000000000000AF
:10292800E428000000000000000000000000000093
:10293800000000000000000000000000000000008F
:10294800000000000000000000000000000000007F
:10295800000000000000000000000000000000006F
:0C29680005010000E1000000000000007C
:04000003000001A94F
:00000001FF
