S00E00004144435F444D412E733337ED
S113000000800020B1010000DD010000DD010000DE
S1130010DD010000DD010000DD010000DD01000064
S1130020DD010000DD010000DD010000DD01000054
S1130030DD010000DD010000DD010000DD01000044
S1130040C5170000DD010000DD010000DD01000036
S1130050DD010000DD010000DD010000DD01000024
S1130060DD010000DD010000DD010000DD01000014
S1130070DD010000DD010000DD010000DD01000004
S1130080DD010000DD010000DD010000DD010000F4
S1130090DD010000DD010000DD010000DD010000E4
S11300A0DD010000DD010000E92B0000DD0100009E
S11300B0DD010000DD010000DD010000DD010000C4
S11300C0DD010000DD010000DD010000DD010000B4
S11300D0DD010000DD010000DD010000DD010000A4
S11300E010B5054C237833B9044B13B10448AFF36E
S11300F000800123237010BD0001002000000000D7
S1130100F43E0000084B10B51BB108480849AFF392
S113011000800848036803B910BD074B002BFBD0CF
S1130120BDE81040184700BF00000000F43E000086
S1130130040100207C00002000000000154B002B6F
S113014008BF134B9D46A3F5803A00218B460F460A
S11301501348144A121A03F08FFE0F4B002B00D0E1
S113016098470E4B002B00D0984700200021040034
S11301700D000D48002802D00C48AFF3008003F0B6
S113018055FE2000290002F039FF03F03BFE00BFBA
S113019000000800008000200000000000000000B3
S11301A000010020EC0A0020000000000000000014
S11301B0064880470649074A074B9A42BEBF51F892
S11301C0040B42F8040BF8E7FFF7B8FF5D030000E7
S11301D0003F00000000002080000020FEE700BF78
S11301E080B400AF044BDB6C1B0EDBB21846BD467B
S11301F05DF8047B704700BFB081E00F80B582B02A
S113020000AF00F01FF87860074B5B6803F00F0342
S11302101A467B68D3407B60044A7B6813607B6822
S113022018460837BD4680BD00800C4030010020D0
S113023080B400AF024B1846BD465DF8047B70479E
S1130240006CDC0280B582B000AF334BDB6A03F490
S11302507053B3F5805F0AD0B3F5005F03D0B3F5F4
S1130260006F08D00BE02D4B1B687B6047E04FF418
S113027000437B6043E02A4B1B687B603FE0264BD6
S1130280DB6803F4E063B3F5007F1BD0B3F5007FB4
S113029005D8002B24D0B3F5807F16D02BE0B3F51E
S11302A0806F09D0B3F5A06F03D0B3F5407F06D0BB
S11302B021E01C4B7B6021E01B4B7B601EE01B4B51
S11302C07B601BE01A4B7B6018E0FFF789FF034655
S11302D0122B02D9174B7B6010E0174B7B600DE0AB
S11302E0FFF77EFF0346122B02D9144B7B6005E017
S11302F0134B7B6002E000237B6000BF00BF064B12
S11303001B6803F4E0339B0B01337A68B2FBF3F30D
S113031018460837BD4680BD00800C40040000200C
S113032000000020003FAB01406F4001809FD500DA
S1130330C0D8A70040B56400C0CF6A00804F120047
S113034040420F0080B400AF034B1B681846BD4603
S11303505DF8047B704700BF0000002080B400AF4C
S1130360BD465DF8047B704780B400AF4FF4004392
S11303701846BD465DF8047B704700BF80B400AFEB
S11303804FF47A731846BD465DF8047B704700BF8E
S113039080B400AF034B1B681846BD465DF8047B70
S11303A0704700BF0400002080B487B000AFF8603D
S11303B0B9607A60FB6803F10473DA00BB68134424
S11303C09B007B617B697A681A601C37BD465DF8C7
S11303D0047B704780B485B000AFF860B9607A6080
S11303E0FB681A68BB68DB431A407B681A43FB68E6
S11303F01A601437BD465DF8047B704780B483B03F
S113040000AF78607B68094A934203D07B68084A4E
S1130410934200D100BF7B681B6823F001027B6814
S11304201A600C37BD465DF8047B7047001000402D
S11304300014004080B483B000AF78607B68094A40
S1130440934203D07B68084A934200D100BF7B6883
S11304501B6843F001027B681A600C37BD465DF8E7
S1130460047B7047001000400014004080B584B045
S113047000AFF860B96011461A460B46FB7113468B
S1130480BB71FB680C4A934203D0FB680B4A93424E
S113049000D100BFFA68BB79DB00104608211A4678
S11304A0FFF798FFBB681A02FB791A43FB68DA610D
S11304B01037BD4680BD00BF00100040001400404E
S11304C080B483B000AF78600B46FB701346BB70FA
S11304D07B680C4A934203D07B680B4A934200D159
S11304E000BF7B685B6823F0F703FA7812011A43B4
S11304F0BB781A437B685A600C37BD465DF8047BB1
S1130500704700BF001000400014004080B582B066
S113051000AF786039607B68224A934203D07B68DD
S1130520214A934200D100BF7B6818460021002273
S1130530FFF73AFF3B681B78DA073B685B789B0759
S113054013431A463B685B681B0613433A68127AE6
S1130550520413433A68527A120413433A68927A63
S1130560120213433A68D27A120113433A68127B97
S113057092001A437B681A603B685B7B1B041A4633
S11305803B681B691B021A437B685A607A683B68A4
S11305901B7D104600211A46FFF706FF0837BD46AB
S11305A080BD00BF001000400014004080B487B03C
S11305B000AF78600B46FB701346BB70BB78002B12
S11305C004D01023FB603E4B3B6103E00023FB603F
S11305D03C4B3B617B685A6B3B691340BB60002317
S11305E07B61FB78062B5BD801A252F823F000BF95
S11305F00D0600002B0600004F0600006D060000EB
S1130600A1060000A1060000910600002E4B5B68C5
S113061003F4FE437A6913437B612B4B5B6803F05D
S11306207F037A6913437B613DE0274B5B6803F0EA
S1130630FE431B0E1B027A6913437B61224B5B68EA
S113064003F4FE031B0C7A6913437B612BE01E4BFE
S11306509B6803F4FE437A6913437B611A4B9B68DE
S113066003F07F037A6913437B611CE0164B9B689C
S113067003F0FE431B0E1B027A6913437B61124B8A
S11306809B6803F4FE031B0C7A6913437B610AE045
S11306900D4BDB6803F07F037A6913437B6102E04F
S11306A000237B6100BFFB687A699A40BB681A43E8
S11306B07B685A631C37BD465DF8047B704700BFF6
S11306C0FFFF80808080FFFFB081E00F80B584B0A1
S11306D000AF786039603B681B79FB72FB7A002BB2
S11306E006D11B48002100F083F80346FB7208E0A2
S11306F01748002100F07CF84FF4FA40002100F084
S113070077F87B680A225A603B681B781A063B68B4
S1130710DB781B0403F4FE031A43FB7A1B0203F485
S1130720FE431A433B685B781B0113433A68927893
S11307301343FB603B685B79002B03D0FB6843F0F9
S11307400803FB607B68FA681A601037BD4680BDF9
S1130750405DC60080B584B000AF786039607B68C6
S113076002225A603B689B78786819460022FFF79A
S11307701DFF3B681B781A073B685B781B051A430F
S11307803B681B791B0213431A463B68DB781B0149
S11307901343FB603B689B79002B03D0FB6843F059
S11307A08073FB603B68DB79002B03D0FB6843F06C
S11307B00403FB603B685B79002B03D0FB6843F0C8
S11307C00203FB603B681B7A002B03D0FB6843F0F9
S11307D00103FB603B689B781B041A46FB681343C8
S11307E0FB607B68FA68DA601037BD4680BD00BFE5
S11307F080B584B000AF786039607B68134A934257
S113080002D9124B7B6006E07B68B3F5FA4F02D243
S11308104FF4FA437B603B68002B03D10C4800F093
S11308201DFB38603A687B6813445A1E7B68B2FB30
S1130830F3F3FB60FB68002B02D0FB68013BFB6019
S1130840FB68DBB218461037BD4680BD405DC6006C
S11308504081040080B582B000AF78607B68002BD3
S113086008D1114800F0FAFA78607B68002B01D1B6
S113087001237B607B680D4A934201D90B4B7B605B
S11308807B6803F5742303F23F237B607B68084A8B
S1130890A2FB03239B0C7B607B68DBB2013BDBB2D6
S11308A018460837BD4680BD408104000048E80171
S11308B083DE1B4380B487B000AFF860B9607A6010
S11308C0FB6803F10473DA00BB6813449B007B618B
S11308D07B697A681A601C37BD465DF8047B7047F3
S11308E080B485B000AF786039607B6803F104732D
S11308F0DA003B6813449B00FB60FB681B681846E6
S11309001437BD465DF8047B704700BF80B485B0E2
S113091000AF78607B68002B04D07B68B3F5004F90
S113092000D800BF7B68B3FA83F3C3F11F03FB60F5
S1130930FB6818461437BD465DF8047B704700BF5A
S113094080B400AF044BDB6C1B0EDBB21846BD4613
S11309505DF8047B704700BFB081E00F80B400AF46
S1130960054BDB6C03F47F031B0CDBB21846BD465E
S11309705DF8047B704700BFB081E00F80B582B0A2
S113098000AFFFF7EBFF03464A2B04D0792B02D0CC
S1130990482B21D022E0144B1B699BB203F03F0388
S11309A09BB21B02FB80104B9B6903F0F0039AB2CD
S11309B0FB881343FB800C4BDB6903F0F0031B093A
S11309C09AB2FB881343FB80FB88B3F5017F01D304
S11309D0064B04E0064B02E0054B00E000231846FA
S11309E00837BD4680BD00BFD0FF0FE000366E0162
S11309F00048E80180B584B000AF786039607A6857
S1130A003B689A428CBF01230023DBB2FB6006489B
S1130A101E21FA68FFF74EFF04480821FA68FFF721
S1130A2049FF1037BD4680BD00800C4004800C4057
S1130A3080B582B000AF07481E21FFF751FF7860F0
S1130A4005480821FFF74CFF38607B6818460837D3
S1130A50BD4680BD00800C4004800C4080B582B04F
S1130A6000AF214B5B6903F4E063B3F5007F1CD056
S1130A70B3F5007F05D8002B25D0B3F5807F1FD0B8
S1130A802AE0B3F5C06F24D0B3F5E06F1ED0B3F500
S1130A90407F21D1FFF754FF0346122B02D9134B99
S1130AA07B601CE0124B7B6019E0FFF749FF0346B3
S1130AB0122B02D90F4B7B6011E00F4B7B600EE0D1
S1130AC00E4B7B600BE00E4B7B6008E00D4B7B60B4
S1130AD005E00D4B7B6002E000237B6000BF7B6878
S1130AE018460837BD4680BD00800C40804F120078
S1130AF040420F0040B56400C0CF6A00C0D8A700D0
S1130B00809FD500406F4001003FAB0180B582B0AB
S1130B1000AF0D4800F08EFA0346FB70FB78072BFC
S1130B2005D0082B07D1FFF78DFB786006E0FFF7AF
S1130B3095FF786002E000237B6000BF7B68184665
S1130B400837BD4680BD00BF06000C0080B485B0E8
S1130B5000AF7860284BDB6B002B14BF012300230C
S1130B60BB72254B41F67132DA63234B5B6803F0A9
S1130B700703FB60FB68012B01D9042B02D100237E
S1130B80FB7202E00123FB7200BF7B681B4A9342A5
S1130B9007D9FB7A002B01D0052300E00423FB6076
S1130BA016E07B68154A93420BD87B68144A93423B
S1130BB007D9FB7A002B01D0032300E00123FB605B
S1130BC006E0FB7A002B01D0022300E00023FB6047
S1130BD00949094B5B6823F00702FB6813434B6028
S1130BE0BB7A002B02D0044B0022DA631437BD46D3
S1130BF05DF8047B704700BF00000C400048E8012A
S1130C000024F40080B500AFFFF712FB034618463A
S1130C10FFF79CFF80BD00BF90B585B000AF786042
S1130C200023BB607B68344A934203D0334A934227
S1130C3000D000E000BF786800F0FCF90346FB60D8
S1130C407B682D4A934203D02C4A934206D00CE091
S1130C502B4B9B6A03F00303FB6006E0284B9B6A63
S1130C6003F00C039B08FB6000BFFB68032B3AD81E
S1130C7001A252F823F000BFAF0C0000890C000061
S1130C80910C0000990C0000FFF76EFBB8602DE09A
S1130C90FFF77EFBB86029E0FFF7B0FA0446FFF7E0
S1130CA0C7FE0346013324FA03F3BB601EE00023AE
S1130CB0BB607B68104A934203D07B680F4A93421F
S1130CC010D10F4B9A6A7B680B498B4201D11023D8
S1130CD000E0142322FA03F3002B03D0FFF74EFBAA
S1130CE0B86003E002E00023BB6000BFBB681846A5
S1130CF01437BD4690BD00BF0200180003001A005F
S1130D0000800C4080B483B000AF7860094B5B6D09
S1130D1003F00103002B00D006E000BF054B1A6D61
S1130D207B681340002BF9D10C37BD465DF8047B7A
S1130D30704700BF00800C4080B582B000AF1048FF
S1130D4000F078F90346FB70FB78032B07D0082BDF
S1130D5009D0022B0BD1FFF71BFB78600AE0FFF7E9
S1130D6003FB786006E0FFF76DFA786002E0002389
S1130D707B6000BF7B6818460837BD4680BD00BF56
S1130D800723200090B587B000AF78600B46FB7056
S1130D9000233B617B681B0A03F00F03013B092B13
S1130DA049D801A252F823F0ED0D0000F30D000024
S1130DB0D10D0000370E0000370E0000F90D0000C1
S1130DC0030E0000370E0000370E00000D0E000069
S1130DD01B4B7B611B4800F041F80446FFF7CEFD36
S1130DE0034620461946FFF705FE12E0164B7B61C9
S1130DF00FE0164B7B610CE0154B7B6101233B61DB
S1130E0007E0144B7B6110233B6102E0124B7B61D2
S1130E1000BF7B681B0B03F01F03FB603B69002BC7
S1130E2002D03869FFF76EFFFB787869F9681A46D3
S1130E30FFF740FD00E000BF1C37BD4690BD00BF7A
S1130E4040800C400043020008800C4044800C4069
S1130E5058800C4060800C4078800C4090B585B080
S1130E6000AF78607B6803F47813B3F5A01F00F03B
S1130E70AB80B3F5A01F1AD8B3F5402F00F0BF80A4
S1130E80B3F5402F08D8B3F5003F3CD0B3F5802F1D
S1130E902DD0002B27D0BEE0B3F5801F3CD0B3F596
S1130EA0901F47D0B3F5602F00F0AD80B3E0B3F5E9
S1130EB0001F00F0AC80B3F5001F0AD8B3F5C01FC3
S1130EC025D0B3F5D01F7AD0B3F5B01F00F08980D8
S1130ED0A1E0B3F5181F4ED0B3F5201F62D0B3F5CF
S1130EE0101F35D097E0FFF7ADF9F86096E0FFF7F3
S1130EF0A9F9F8604C4B9B6803F00F031A46FB6892
S1130F00D340FB608AE0FFF779F9F86086E0474850
S1130F10FFF782FEF86081E04448FFF77DFEF86049
S1130F20414B9B6E03F0F0031B091A46FB68D34048
S1130F30FB6073E03D48FFF76FFEF8603A4B9B6E31
S1130F4003F470631B0A1A46FB68D340FB6065E038
S1130F503648FFF761FEF860334B9B6E03F4405351
S1130F601C0B1020FFF7D2FC034623441A46FB68EF
S1130F70D340FB6052E02D48FFF74EFEF8602A4B49
S1130F809B6E03F440531B0B1A46FB68D340FB6073
S1130F90254BDB6F03F007030133FA68B2FBF3F36D
S1130FA0FB603BE02148FFF737FEF8601E4B9B6E69
S1130FB003F003031A46FB68D340FB602EE01C4891
S1130FC0FFF72AFEF86029E01948FFF725FEF860CC
S1130FD0154B1B6F03F003031A46FB68D340FB60F9
S1130FE01CE01348FFF718FEF8600F4B1B6F03F06B
S1130FF030031B091A46FB68D340FB600EE0FFF781
S113100085FDF8600AE0FFF729FDF86006E0FFF7C8
S113101093FEF86002E00023FB6000BFFB68184603
S11310201437BD4690BD00BF00800C40020018007C
S113103003001A0080B485B000AF78600123FB730D
S11310407B6803F00F03BB60BB68013B062B00F217
S1131050938001A252F823F075100000AB10000039
S1131060E71000007911000079110000231100003D
S113107045110000454BDB6A03F47053B3F5805F00
S113108009D0B3F5005F03D0B3F5006F06D008E0D4
S11310900223FB7308E00323FB7305E00423FB73C3
S11310A002E00523FB7300BF69E0384B9B6A03F041
S11310B00303022B06D0032B07D0012B08D10323F3
S11310C0FB730FE00223FB730CE00623FB7309E0C0
S11310D02E4B9B6A03F48033002B02D00923FB734D
S11310E000E000BF4BE0294B9B6A03F00C03082B84
S11310F006D00C2B07D0042B08D10323FB730FE07D
S11311000223FB730CE00623FB7309E01F4B9B6A6D
S113111003F48013002B02D00923FB7300E000BF0B
S11311202DE01A4B1B6803F08053002B03D0B3F15E
S1131130805F03D023E00723FB7302E00823FB73E3
S113114000BF1CE0114BDB6A03F46033B3F5803F4E
S113115008D0B3F5003F08D0B3F5004F08D10823F9
S1131160FB7308E00223FB7305E00323FB7302E037
S11311700123FB7300BF02E00023FB7300BFFB7B72
S113118018461437BD465DF8047B704700800C4058
S113119090B589B000AF78600B46FB700323FB6108
S11311A00323FB7600233B617B6803F00F03FB60A2
S11311B0FB68013B062B00F2348101A252F823F0B4
S11311C0DD110000C9120000C91200002314000040
S11311D02314000091130000BB130000FB78023BB2
S11311E0072B00F2228101A252F823F00D12000015
S11311F017120000211200006B1200002B140000D3
S11312002B1400002B1400002B1400000423FB619A
S11312100023FB7639E00323FB610123FB7634E0F2
S11312200223FB610223FB76FFF7A8FB03465C1C49
S1131230FFF7A4FB034620461946FFF7DBFBFFF745
S113124081F802467C4B9A4206D97C4A7B4B1B6848
S113125043F06003136018E0784A784B1B6823F06E
S1131260600343F0200313600FE00123FB610323B9
S1131270FB76FFF783FB03465C1CFFF77FFB03460B
S113128020461946FFF7B6FB00BFFB7E1846012136
S1131290012200F04BF9FFF7B5FC684AFB69536281
S11312A06748FFF7DBFD0446FFF768FB034620466B
S11312B01946FFF79FFB00F077FDFEF79FFFB8602C
S11312C0B868FFF743FCADE0FB78013B082B00F264
S11312D0AE8001A252F823F0FD12000003130000B7
S11312E0131300002F1400002F1400002313000018
S11312F02F1400002F1400004713000000237B610B
S113130026E000200121012200F010F902237B6174
S11313101EE001200121012200F008F901237B6174
S113132016E0FEF76BFFB860FFF728FB0346B868CA
S11313301946FFF75FFB434804210122FFF7BAFA7D
S113134003237B6104E000237B6101233B6100BF35
S1131350FB68022B0DD13949384B9B6A23F4803347
S113136023F003037A691A433B691B0413438B621A
S113137058E03249314B9B6A23F4801323F00C0369
S11313807A6992001A433B691B0513438B6249E057
S1131390FB78072B02D0082B07D049E0274A274BBC
S11313A01B6823F08053136006E0244A234B1B6818
S11313B043F08053136000BF34E0FB78032B14D058
S11313C0082B22D0022B00D032E000200121012280
S11313D000F0ACF8194B40225A6200BF174BDB6A8D
S11313E003F48033002BF9D01AE0012001210122FB
S11313F000F09CF8114B60225A6200BF0F4BDB6A6D
S113140003F40033002BF9D00AE00C4B20225A627B
S113141000BF0A4BDB6A03F40043002BF9D000BF82
S113142000E000BFFFF704FB02E000BF00E000BFE4
S11314302437BD4690BD00BF0048E80100800C4041
S11314400043020040800C4090B587B000AF0346D3
S1131450FB71FB79052B5FD801A252F823F000BF82
S11314607914000083140000911400009F140000FC
S1131470A9140000B3140000294BDB6ADBB27B61C2
S11314801EE0274BDB6A03F47F431B0A7B6117E0F2
S1131490234BDB6A03F47F031B0C7B6110E0204BBE
S11314A0DB6A1B0E7B610BE01D4B1B6BDBB27B61AC
S11314B006E01B4B1B6B03F47F431B0A7B6100BFDD
S11314C01120FFF7B7FD0346FB74FB7C052B01D10C
S11314D0FFF798FB1349134BDB6823F4FF6323F0F6
S11314E00703FA7912021A437B691343CB60FB7C2E
S11314F0052B05D1FEF782FEF860F868FFF726FB9E
S11315000948FFF7ABFC0446FFF738FA03462046C8
S11315101946FFF76FFA00E000BF1C37BD4690BDC7
S1131520B081E00F00800C400043020080B586B01B
S113153000AF0346FB710B46BB7113467B71FB790D
S1131540042B4AD801A252F823F000BF99150000D9
S11315508B1500006F150000611500007D1500005B
S113156001233B610223FB6001237B611DE0042313
S11315703B610823FB6003237B6116E010233B617E
S11315802023FB6005237B610FE040233B61802324
S1131590FB6007237B6108E04FF480733B614FF4E9
S11315A00073FB6009237B6100BFBB79002B0ED065
S11315B00C4A3B6913627B79002B0BD000BF0A48AD
S11315C07969FFF78DF90346002BF8D002E0054A4C
S11315D0FB68136200F0E8FB00E000BF1837BD466B
S11315E080BD00BF00800C402C800C4080B483B0D0
S11315F000AF0346FB71084997F907305B09FA7994
S113160002F01F02012000FA02F241F823200C37F5
S1131610BD465DF8047B704700E100E080B483B010
S113162000AF0346FB71094997F907305B09FA7962
S113163002F01F02012000FA02F2203341F82320B5
S11316400C37BD465DF8047B704700BF00E100E045
S113165080B483B000AF0346FB71094997F90730A2
S11316605B09FA7902F01F02012000FA02F26033EA
S113167041F823200C37BD465DF8047B704700BF5A
S113168000E100E080B487B000AFF860B9607A6030
S1131690FB6803F10473DA00BB6813449B007B61AD
S11316A07B697A681A601C37BD465DF8047B704715
S11316B080B489B000AF7860084611461A460346E4
S11316C0FB700B46BB7013467B707B681A013C4B66
S11316D09B681344BB61BB78002B02D0BB69FB61E0
S11316E005E07B681A01364BDB681344FB61BB6978
S11316F0DB687B617B69002B02D0BA787B691A7244
S1131700FB6A002B14D0FB699B6803F040639B0EBB
S11317103B613B69032B03D1FB69FA6A1A6007E05A
S11317203B693A6B9A40FB6A13441A46FB691A6098
S1131730BB6A002B12D0FB699B689B0F3B613B6922
S1131740032B03D1FB69BA6A5A6007E03B693A6B21
S11317509A40BB6A13441A46FB695A607B680122AB
S113176002FA03F3FB607B78002B03D0144AFB6876
S1131770936102E0124AFB68D361BB78002B03D06B
S11317800F4AFB68536302E00D4AFB681363FB696D
S11317909B6823F47F5323F03703BB603B6B1B012F
S11317A0BA681343BB60FB78BA681343BB60FB6938
S11317B0BA689A602437BD465DF8047B704700BF61
S11317C000200C4080B58AB000AF334B03F5805342
S11317D01B68BB61304B03F580530C331B68BA693B
S11317E01340BB612C4B9B6B7B61BA697B691340D3
S11317F03B620023FB6149E000237B623BE03B6AE0
S113180003F00103002B30D0234B9B683B61012282
S11318107B6A02FA03F3FB601F4B03F58053083322
S1131820FA681A607B6A1B013A691344DB68BB607F
S1131830BB68002B19D0BB681B7A7B60BB681B7A22
S113184083F00103DAB2BB681A72BB681B68002B11
S11318500BD0BB681B68786A7A68002A14BF01221F
S11318600022D1B2BA68526898473B6A5B083B626F
S11318707B6A01337B623B6A002BC0D17B69DA430C
S1131880BB6913403B62FB690133FB61FB69012BBC
S1131890B2DD2837BD4680BD00200C4090B589B02C
S11318A004AFF8607B600B46FB721346BB72FA7A96
S11318B0BC7A7B6800933B6A01937B6A0293F86865
S11318C001212346FFF7F4FE044AFB68012101FAD3
S11318D003F393621437BD4690BD00BF00200C4053
S11318E080B584B000AF786039601F4B9B68FB60A3
S11318F07B681B01FA6813443A689268DA603B68B3
S11319001B78002B06D0184A7B68012101FA03F3E7
S1131910936305E0144A7B68012101FA03F3D3635E
S113192011493B685A687B6803F5886341F82320B2
S11319303B685B78002B0FD00B4A7B68012101FACE
S113194003F3194602F58053083319600748796890
S11319500122FFF797FE04E0044879680022FFF7AC
S113196091FE1037BD4680BD00200C400C300C4069
S113197080B487B000AFF8600B467A60FB72FB7AE4
S1131980002B03D0154B9B687B6102E0134BDB6893
S11319907B61FB681B017A6913447B617B681B785C
S11319A09A077B689B781B071A437B685B789B06C6
S11319B01A437B689B781B0613431A467B681B7982
S11319C09B0413437A68D27892031A437B699A6022
S11319D01C37BD465DF8047B704700BF00200C40F7
S11319E080B582B000AF786010480121FFF7CAF9D2
S11319F000F020F80020FFF72BFE0020FFF7F6FD93
S1131A000B4B03F580530C334FF000421A60084A25
S1131A107B685B689360064A7B681B785B0143F0D4
S1131A20010353600837BD4680BD00BF00030200B8
S1131A3000200C4080B582B000AF0020FFF7EEFD1F
S1131A401C4B00225A601B4B40F6FF72DA61194BA3
S1131A5040F6FF725A62174B40F6FF72DA62154B7A
S1131A6040F6FF725A63134B40F6FF72DA63114B70
S1131A700122DA640F4B03F580530C3300221A6001
S1131A800C4B03F5805308330B4A1A6000237B6028
S1131A9009E0084A7B6803F58863002142F82310B3
S1131AA07B6801337B607B680B2BF2DD0837BD4616
S1131AB080BD00BF00200C40FF0F008080B500AF48
S1131AC0FEF79CFB80BD00BF80B400AF034B002237
S1131AD0C3F88420BD465DF8047B704700800C4049
S1131AE080B400AF044B45F60E02C3F88420BD4613
S1131AF05DF8047B704700BF00800C4080B582B065
S1131B0000AF384BD3F8843003F001037B60FFF758
S1131B10E7FF00233B60344B1B6803F001033A6882
S1131B2013433B60304B1B6803F010033A681343C4
S1131B303B602D4B1B6803F040033A6813433B6042
S1131B40294B1B6803F004033A6813433B60264B9C
S1131B501B6803F480733A6813433B60214A3B6873
S1131B601362214B1B6803F47053B3F5805F06D0F6
S1131B70B3F5005F0ED0B3F5006F16D020E000BFC0
S1131B80184BDB6A03F08003002BF9D0154B0322BA
S1131B905A6215E000BF134BDB6A03F40073002B99
S1131BA0F9D0104B04225A620AE000BF0D4BDB6AE5
S1131BB003F00803002BF9D00A4B02225A6200BF3B
S1131BC0094B1B6803F00103002B02D1054B0222D1
S1131BD01A627B68002B01D0FFF776FF0837BD46F9
S1131BE080BD00BF00800C401C01002080B483B085
S1131BF000AF164B1B699BB203F03F039BB21B0261
S1131C00FB80124B9B6903F0F0039AB2FB881343E9
S1131C10FB800E4BDB6903F0F0031B099AB2FB88CF
S1131C201343FB80FB88B3F5827F03D3FB88B3F5B2
S1131C30017F01D1012300E0002303F00103DBB2A3
S1131C4018460C37BD465DF8047B7047D0FF0FE0A3
S1131C5080B586B000AF0346FB711F4BDB6A1F4A99
S1131C6013601F4A1E4B1B6943F004031361FFF703
S1131C70BDFF0346FB75FB7D002B11D0194B1A6881
S1131C80194B1340FB60174AFB68C2F88030154BB0
S1131C905B6823F046033B61124A3B69C2F8843017
S1131CA030BFFB7D002B05D00E4AFB6813600D4A44
S1131CB03B695360FB79002B02D0FFF71FFF07E05D
S1131CC0064B1B6803F48063002B01D1FFF7F6FE7B
S1131CD01837BD4680BD00BF00800C401C010020A9
S1131CE000ED00E000E100E09CF1FD0080B586B06D
S1131CF000AF0346FB71274BDB6A274A1360254B71
S1131D00D3F8843003F001037B61FFF7E9FE214B34
S1131D104FF420721A627B69002B01D0FFF7D4FEC6
S1131D201E4A1E4B1B6943F004031361FFF75EFF59
S1131D300346FB74FB7C002B11D0194B1A68194B1A
S1131D401340BB60164ABB68C2F88030144B5B6812
S1131D5023F04603FB60124AFB68C2F8843030BFAC
S1131D60FB7C002B05D00E4ABB6813600C4AFB6851
S1131D705360FB79002B02D0FFF7C0FE07E0064B4F
S1131D801B6803F48063002B01D1FFF797FE18371B
S1131D90BD4680BD00800C401C01002000ED00E029
S1131DA000E100E09CF1FD0080B400AF034BDB6A6E
S1131DB0034A1360BD465DF8047B704700800C4005
S1131DC01C01002080B483B000AF03463960FB716E
S1131DD0FB79002B0DD0FB79012B0AD0FB79022B68
S1131DE007D0FB79032B04D0FB79042B01D0FB79BA
S1131DF0052B0949FA793B68012000FA03F31846D8
S1131E001346DB0013449B000B44103358600C371B
S1131E10BD465DF8047B70470060004080B483B029
S1131E2000AF03463960FB71FB79002B0DD0FB79C1
S1131E30012B0AD0FB79022B07D0FB79032B04D0AA
S1131E40FB79042B01D0FB79052B0949FA793B680E
S1131E50012000FA03F318461346DB0013449B00E9
S1131E600B44103318600C37BD465DF8047B704793
S1131E700060004090B585B000AFB9607B60034658
S1131E80FB731346BB73FB7B002B0DD0FB7B012B39
S1131E900AD0FB7B022B07D0FB7B032B04D0FB7BFC
S1131EA0042B01D0FB7B052BBB7B002B0DD07B6867
S1131EB0002B05D0FB7B1846B968FFF7AFFF04E0A1
S1131EC0FB7B1846B968FFF77DFFBB68072B1CD85E
S1131ED02A4CFA7B2948F97B0B46DB000B449B0018
S1131EE003445B68B968890008460F218140C943EF
S1131EF00B40B97BB8688000814019431346DB006E
S1131F0013449B002344596024E01C4CFA7B1B4877
S1131F10F97B0B46DB000B449B0003440833196830
S1131F20BB6803F18043083B9B0018460F238340A2
S1131F30DB431940B87BBB6803F18043083B9B003B
S1131F4000FA03F319431346DB0013449B002344B4
S1131F5008331960BB7B002B0DD17B68002B05D0A7
S1131F60FB7B1846B968FFF759FF04E0FB7B184672
S1131F70B968FFF727FF1437BD4690BD00600040E5
S1131F8080B487B000AFF860B9607A60FB68114A2A
S1131F90934208D1BB68012B05D87B681B0C1B043A
S1131FA0002B00D100BFBB68002B02D0012B04D052
S1131FB00AE0FB6810337B6103E0FB6814337B6148
S1131FC000BF7B697A681A601C37BD465DF8047BE4
S1131FD0704700BF0020084080B483B000AF786031
S1131FE00B46FB70FB78002B08D000BF7B685B6B53
S1131FF0002BFBD17B6801221A6302E07B6800227C
S11320001A630C37BD465DF8047B704780B485B015
S113201000AF786039600023FB603B681B7883F075
S11320200103DBB2002B08D07B689B6803F001033B
S1132030002B02D07B6802225A603B685B78002B3D
S113204003D0FB6843F48053FB603B689B78002B10
S113205003D0FB6843F48063FB603B68DB78002BB0
S113206003D0FB6843F40063FB603B681B79002BDF
S113207003D0FB6843F40073FB603B685B79002B7F
S113208003D0FB6843F48073FB603B689B79002BAF
S113209003D0FB6843F04003FB603B68DB79002B13
S11320A003D0FB6843F08003FB603B681B7A9B0012
S11320B01A46FB681343FB603B685B7A1B011A46B4
S11320C0FB681343FB603B689B7A1A46FB68134327
S11320D0FB607B68FA681A603B681B78002B08D0A9
S11320E07B689B6803F00103002B02D17B6801220B
S11320F05A601437BD465DF8047B704780B487B0DE
S113210000AFF860B9607A60FB68114A934208D165
S1132110BB68012B05D87B6823F0FF03002B00D19B
S113212000BFBB68002B02D0012B04D00AE0FB687F
S113213018337B6103E0FB681C337B6100BF7B6960
S11321407A681A601C37BD465DF8047B704700BF8F
S11321500020084080B582B000AF78607868012123
S1132160FFF73AFF7B681E225A607B6800221A60E0
S11321707B6800221A617B6800225A617B68002216
S11321809A617B680022DA617B680022DA627B68EC
S11321901F229A6278680021FFF71EFF0837BD46A8
S11321A080BD00BF80B485B000AF7860194B5B6917
S11321B0DBB203F00F03DBB29B00FB73154B1B690F
S11321C003F0C0039B09DAB2FB7B1343FB737B6808
S11321D0FA7B9A700F4B1B69DBB203F03F03DAB250
S11321E07B685A700B4B9B69DBB223F00F03FB73C4
S11321F0084BDB6903F0F0031B09DAB2FB7B1343E2
S1132200FB737B68FA7B1A701437BD465DF8047B58
S1132210704700BFD0FF0FE080B483B000AF786098
S113222039607B683B4A93420BD07B683A4A9342BD
S113223007D07B68394A934203D07B68384A93427B
S113224000D100BF3B681B7883F00103DBB2002B95
S113225002D07B6802225A607B6800225A623B6883
S11322609B781A063B68DB781B041A433B689B790E
S11322709B021A433B68DB791B0213433A68127AC8
S11322801A433B685B78002B01D0402300E0002315
S11322901A433B685B7A002B01D0802300E00023C3
S11322A01A433B689B7A002B01D0202300E00023D3
S11322B01A433B68DB7A002B01D0102300E0002393
S11322C01A433B681B79002B02D04FF4005300E003
S11322D000231A433B685B79002B02D04FF08053F4
S11322E000E000231A433B681B7B002B01D008232A
S11322F000E000231A437B681A603B681B78002BBC
S113230002D07B6801225A600C37BD465DF8047B1D
S1132310704700BF00000140000401400008014074
S1132320000C014080B485B000AF78607B682F4A10
S113233093420BD07B682E4A934207D07B682D4A88
S1132340934203D07B682C4A934200D100BF7B6840
S113235002225A607B6800221A607B680022DA60DD
S11323607B6840F273729A617B6800221A627B6810
S11323704FF6FF72DA617B6800225A620023FB6029
S113238017E07A68FB6803331B01134400221A60C8
S11323907A68FB6803331B01134400225A607A688D
S11323A0FB681B011344383300225A60FB68013375
S11323B0FB60FB68022BE4DD7B684CF68062C3F8AB
S11323C088207B6800221A677B6800225A677B6832
S11323D000229A677B680022DA677B680F22C3F8C1
S11323E084201437BD465DF8047B7047000001402B
S11323F00004014000080140000C014080B483B097
S113240000AF0346FB71084997F907305B09FA7975
S113241002F01F02012000FA02F241F823200C37D7
S1132420BD465DF8047B704700E100E080B483B0F2
S113243000AF03463960FB71FB79002B0DD0FB79AB
S1132440012B0AD0FB79022B07D0FB79032B04D094
S1132450FB79042B01D0FB79052B0949FA793B68F8
S1132460012000FA03F318461346DB0013449B00D3
S11324700B44103358600C37BD465DF8047B70473D
S11324800060004080B483B000AF03463960FB7144
S1132490FB79002B0DD0FB79012B0AD0FB79022BA1
S11324A007D0FB79032B04D0FB79042B01D0FB79F3
S11324B0052B0949FA793B68012000FA03F3184611
S11324C01346DB0013449B000B44103318600C3795
S11324D0BD465DF8047B70470060004080B582B063
S11324E000AF0C4B1B687B603B461846FFF75AFE57
S11324F07B681B0E0F2B0AD93B78032B07D1064AA6
S1132500054B1B6823F0500343F010031360083796
S1132510BD4680BDFC81E00FC0800C4080B400AF9C
S113252072B6084B1B68B3F1FF3F04D0054B1B6820
S11325300133044A1360034B1B681846BD465DF81B
S1132540047B70472001002080B483B000AF0C4BA3
S11325501B68002B0DD00A4B1B68013B084A136013
S1132560074B1B687B607B68002B00D162B67B68DD
S113257000E0002318460C37BD465DF8047B704725
S11325802001002080B400AF054A054B1B6923F0ED
S11325900403136130BFBD465DF8047B704700BF80
S11325A000ED00E080B483B000AF78607B68DB6846
S11325B018460C37BD465DF8047B704780B483B081
S11325C000AF786039607B683A689A620C37BD4620
S11325D05DF8047B704700BF80B483B000AF7860BF
S11325E039607B68DA6A3B681A437B68DA620C37C5
S11325F0BD465DF8047B704780B485B000AF786059
S11326007B68DB6AFB607B681A6AFB6813401846C8
S11326101437BD465DF8047B704700BF80B483B0B7
S113262000AF78607B685B6A18460C37BD465DF87E
S1132630047B704780B483B000AF786039607B68F6
S11326403A685A620C37BD465DF8047B704700BF98
S113265080B483B000AF78607B68DB6918460C37C0
S1132660BD465DF8047B704780B483B000AF7860EA
S11326700B46FB70FA787B685A600C37BD465DF8F0
S1132680047B704780B500AF104B1B68002B00DD46
S11326901AE00E4B5B68002B02DDFFF773FF12E0BC
S11326A00A4B9B68002B03DD0120FFF7D1FA0AE0F7
S11326B0064BDB68002B03DD0120FFF717FB02E06C
S11326C00120FFF713FB00BF80BD00BFDC0A002020
S11326D080B582B000AF0346FB71FFF71FFFFB79A3
S11326E0054A52F823200132034941F82320FFF719
S11326F02BFF0837BD4680BDDC0A002080B582B0C0
S113270000AF0346FB71FFF709FFFB79054A52F856
S11327102320013A034941F82320FFF715FF083726
S1132720BD4680BDDC0A0020B0B58EB000AF4FF0CE
S113273000037B634FF000033B63A1480121FEF7D4
S113274021FBA0480121FEF71DFB9F480121FEF754
S113275019FB9E480221FEF71BFD9D480121FEF74F
S113276011FB9C480121FEF70DFB07F12003002219
S11327701A60043300221A60043300221A600433FE
S113278000221A700133012387F82030012387F8CF
S11327902C3007F1100300221A60043300221A605F
S11327A0043300221A60043300221A700133012317
S11327B03B740223FB7401233B77874A3B1D10685B
S11327C0516803C31189927A19809A708348002151
S11327D0FFF730FF82480021FFF72CFF81480021DA
S11327E048F20102FFF7CCFB7E4800210122FFF7EB
S11327F085FC7C4801210122FFF780FC07F12003BE
S113280076481946FFF708FD07F110037448194686
S1132810FFF702FD3B1D73481946FFF7F7FB00BFA6
S11328207048FFF7BFFE0346012BF9D16B48FFF751
S1132830F5FE0346184601F0A1F804466848FFF780
S1132840EDFE0346184601F099F805466348FFF784
S1132850FFFE0346184601F091F803462846194640
S113286001F0E4F803462046194600F0D7FF03467A
S11328707B635A48FFF756FD5948FFF753FD594803
S1132880FFF768FC4E480121FEF77CFA4D48012110
S1132890FEF778FA4C480121FEF774FA4C480021FF
S11328A0FEF770FA4B480021FEF76CFA47480921FD
S11328B0FEF76EFC46480121FEF764FA4548012103
S11328C0FEF760FA45480021FFF7B4FE44480021B2
S11328D0FFF7B0FE4348002140F2E932FFF750FB16
S11328E0404800210122FFF709FC3E480121012252
S11328F0FFF704FC07F1200338481946FFF78CFC66
S113290007F1100336481946FFF786FC3B1D35488E
S11329101946FFF77BFB00BF3248FFF743FE03462F
S1132920012BF9D12D48FFF779FE0346184601F033
S113293025F804462A48FFF771FE0346184601F0BD
S11329401DF805462548FFF783FE0346184601F0A7
S113295015F803462846194601F068F80346204650
S1132960194600F05BFF03463B631C48FFF7DAFCA3
S11329701B48FFF7D7FC1B48FFF7ECFB144800216A
S1132980FEF700FA13480021FEF7FCF90C48002179
S1132990FEF7F8F90B480021FEF7F4F90A48002184
S11329A0FEF7F0F9786B396B01F0F4F803461A4638
S11329B00D4B1A600C4B1B6818463837BD46B0BD2A
S11329C04081040000520400006204000200180068
S11329D00043020060261200D43E000000000140C3
S11329E000040140002008402401002080B584B088
S11329F000AF0720FEF728FDFFF796FE2C4B1B784F
S1132A00022B31D82B4B4FF07E521A602A480221F8
S1132A10FEF7BEFB2848FEF721FA02461346DB0008
S1132A2013447B607B68FB600123BB600CE0234B99
S1132A301B680133214A1360BB685B00BB607A6882
S1132A40BB6892FBF3F3FB60FB68B3F5803FEEDAFF
S1132A501B491B4B9B6E194A1268120213438B6667
S1132A60164ABB6813600AE013480921FEF790FB7D
S1132A70144B1B680F4A1360104B01221A60124852
S1132A800121FEF77FF911480121FEF77BF9104877
S1132A900121FEF777F90F480121FEF773F90E487B
S1132AA00121FEF76FF900BF1037BD4680BD00BF9E
S1132AB0080000200C00002002001800280100205B
S1132AC000800C4024010020004302006026120014
S1132AD000D20400408104000092040000000000C1
S1132AE0B0B586B000AF3A4B1B781846FFF7F0FD3F
S1132AF03848FEF7B3F90346184600F03FFF024694
S1132B00354B1B681046194600F090FF03467B6165
S1132B10786901F051F903465A00304B1B6892FB67
S1132B20F3F33B61786901F047F90346184600F076
S1132B30CFFB02460B461046194623A3D3E90023D4
S1132B4000F02CFC02460B4614461D46234B1B6822
S1132B50184600F0BDFB02460B462046294600F00D
S1132B6047FD02460B461046194600F029FE03466F
S1132B70FB601B4A3B461068516803C31189927A73
S1132B8019809A703B69174800211A46FFF7F8F933
S1132B90FB68144801211A46FFF7F2F93B46114835
S1132BA01946FFF733FA0F480421FFF715FD0D48C6
S1132BB00221FFF711FD1A20FFF720FC1837BD464C
S1132BC0B0BD00BFAFF30080FCA9F1D24D62703FED
S1132BD008000020020018000C000020280100203A
S1132BE0E03E00000020084080B584B002AFFFF74B
S1132BF095FC3A48FFF700FD0346022B12D13848F2
S1132C00FDF718FC35480221FFF7D8FC0320062104
S1132C10FFF738FC00BF324B9B6803F00103002B25
S1132C20F9D056E02D480421FFF7C8FC2C4B9B68D3
S1132C3003F00203002B32D02A4B1B68002B17D061
S1132C4000F0A4F92648FDF7D9FB25482649FDF7ED
S1132C505DFC2348002100220023FDF707FC2048E7
S1132C6006210A22FDF72CFC1E4B00221A6016E0F6
S1132C7000F084F91A48FDF7C1FB19481B49FDF718
S1132C8045FC1748002100220023FDF7EFFB144800
S1132C900A210622FDF714FC124B01221A600320BC
S1132CA00621FFF7C3FB00237B600120FFF710FD23
S1132CB00F4B009340F2ED230193002001210022E9
S1132CC00C4BFEF7EBFD0C480121FFF7CDFC00F0A7
S1132CD075F9FFF739FC0837BD4680BD0020084070
S1132CE0001000402C010020A43E0000BC3E000067
S1132CF024200040000500200020004080B500AFE3
S1132D0007480849FDF702FC05480021002200237A
S1132D10FDF7ACFB024806210A22FDF7D1FB80BD7A
S1132D2000100040A43E000080B586B000AF2348E8
S1132D300121FEF727F800233B7400237B74002352
S1132D40BB741F23FB7400233B7500237B75002396
S1132D503B7100237B710023BB710023FB710023B3
S1132D603B7200237B720023BB720023FB7200239F
S1132D703B730020FDF76EFD0346FB7410480021F1
S1132D80FDF736FD03463B7507F110030D48194660
S1132D90FDF79CFC08233B720023BB710023FB71ED
S1132DA000237B7100F08AF801233B733B1D054827
S1132DB01946FDF7CFFC1837BD4680BD000205005B
S1132DC0A8CC03000020004080B586B000AFF860B6
S1132DD00B467A60FB7200237B610120FFF78EFCB7
S1132DE0174A174B5B6843F00203536000237B824E
S1132DF00BE07B8A134A32F813309BB21BB27A6918
S1132E0013447B617B8A01337B827B8A40F2ED220F
S1132E109342EED9786900F0B5FD034618460A4995
S1132E2000F0B8FE0346184600F0C6FF03461846F5
S1132E3000F00EF80246054B1A601837BD4680BDF7
S1132E40002000400005002000803B4410000020CA
S1132E5080B586B000AF7860164B1B6803F47F031F
S1132E601B0C184600F08AFD03467B61114BDB689E
S1132E701B0D184600F082FD03463B610E4BFB60C0
S1132E80786800F07FFD03463869194600F0C4FCF9
S1132E9003461846F96800F07DFE03467869194632
S1132EA000F0BAFC0346BB60BB6818461837BD4641
S1132EB080BD00BFB081E00FD7A3C8C080B588B083
S1132EC000AF1C480121FDF75DFF00233B761A4B40
S1132ED0FB6107F118031846FEF782FD174B184AE9
S1132EE01A60164B00225A60144B01221A720023F6
S1132EF03B7301237B734FF400233B610F4B7B61D6
S1132F0007F10C0300201946FEF7EAFC01233B718C
S1132F1003237B710123BB710023FB7100233B72EC
S1132F203B1D002001211A46FEF722FD2037BD4635
S1132F3080BD00BF00030200000300200002002047
S1132F40C92D000080B500AF042002210422002313
S1132F50FEF790FF0420032104220023FEF78AFFDA
S1132F600320062104220023FEF784FF0220062109
S1132F7001220023FEF77EFF80BD00BF80B500AFB5
S1132F8004200221FFF77EFA80BD00BF80B500AFA8
S1132F9004200221FFF74AFA80BD00BF80B500AFCC
S1132FA004200321FFF76EFA80BD00BF80B500AF97
S1132FB004200321FFF73AFA80BD00BF80B500AFBB
S1132FC00B4B1B6818460B4900F0ECFE0346002B24
S1132FD008D1074B1B681846074900F0C5FE034695
S1132FE0002B02D0FFF7DAFF01E0FFF7DFFF80BD1F
S1132FF01000002000000C420000704180B500AFBA
S1133000FFF76CFA084B0122C3F82421FFF7EEFC0A
S1133010FFF766FDFFF796FFFFF770FEFFF784FEEC
S1133020FFF730FBFCE700BF0060004081F0004187
S113303002E000BF83F0004330B54FEA41044FEA99
S1133040430594EA050F08BF90EA020F1FBF54EA34
S1133050000C55EA020C7FEA645C7FEA655C00F0D0
S1133060E2804FEA5454D4EB5555B8BF6D420CDDA1
S11330702C4480EA020281EA030382EA000083EA24
S1133080010180EA020281EA0303362D88BF30BDC4
S113309011F0004F4FEA01314FF4801C4CEA11311A
S11330A002D0404261EB410113F0004F4FEA033379
S11330B04CEA133302D0524263EB430394EA050F04
S11330C000F0A780A4F10104D5F1200E0DDB02FA73
S11330D00EFC22FA05F2801841F1000103FA0EF207
S11330E0801843FA05F359410EE0A5F120050EF1CD
S11330F0200E012A03FA0EFC28BF4CF0020C43FAFE
S113310005F3C01851EBE37101F0004507D54FF00A
S1133110000EDCF1000C7EEB00006EEB0101B1F55A
S1133120801F1BD3B1F5001F0CD349085FEA3000A0
S11331304FEA3C0C04F101044FEA445212F5800FAB
S113314080F09A80BCF1004F08BF5FEA500C50F148
S1133150000041EB045141EA050130BD5FEA4C0C2B
S1133160404141EB010111F4801FA4F10104E9D1B4
S113317091F0000F04BF01460020B1FA81F308BFAB
S11331802033A3F10B03B3F120020CDA0C3208DD77
S113319002F1140CC2F10C0201FA0CF021FA02F152
S11331A00CE002F11402D8BFC2F1200C01FA02F1C2
S11331B020FA0CFCDCBF41EA0C019040E41AA2BFE7
S11331C001EB0451294330BD6FEA04041F3C1CDAAF
S11331D00C340EDC04F11404C4F1200220FA04F0CF
S11331E001FA02F340EA030021FA04F345EA030179
S11331F030BDC4F10C04C4F1200220FA02F001FA3B
S113320004F340EA0300294630BD21FA04F02946BC
S113321030BD94F0000F83F4801306BF81F4801155
S11332200134013D4EE77FEA645C18BF7FEA655CC8
S113323029D094EA050F08BF90EA020F05D054EA9A
S1133240000C04BF1946104630BD91EA030F1EBF9F
S11332500021002030BD5FEA545C05D140004941A3
S113326028BF41F0004130BD14F580043CBF01F596
S1133270801130BD01F0004545F0FE4141F470017C
S11332804FF0000030BD7FEA645C1ABF1946104657
S11332907FEA655C1CBF0B46024650EA013406BF58
S11332A052EA033591EA030F41F4002130BD00BF17
S11332B090F0000F04BF0021704730B54FF48064D4
S11332C004F132044FF000054FF0000150E700BF55
S11332D090F0000F04BF0021704730B54FF48064B4
S11332E004F1320410F0004548BF40424FF00001A1
S11332F03EE700BF42004FEAE2014FEA31014FEAE4
S113330002701FBF12F07F4393F07F4F81F0605132
S1133310704792F0000F14BF93F07F4F704730B5A1
S11333204FF4607401F0004521F0004120E700BF34
S113333050EA010208BF704730B54FF000050AE0BB
S113334050EA010208BF704730B511F0004502D5BC
S1133350404261EB41014FF4806404F132045FEABE
S1133360915C3FF4DCAE4FF003025FEADC0C18BF63
S113337003325FEADC0C18BF033202EBDC02C2F159
S1133380200300FA03FC20FA02F001FA03FE40EAEB
S11333900E0021FA02F11444C1E600BF70B54FF0EB
S11333A0FF0C4CF4E06C1CEA11541DBF1CEA1355CD
S11333B094EA0C0F95EA0C0F00F0DEF82C4481EA35
S11333C0030621EA4C5123EA4C5350EA013518BF55
S11333D052EA033541F4801143F4801338D0A0FB42
S11333E002CE4FF00005E1FB02E506F00042E0FBEF
S11333F003E54FF00006E1FB03569CF0000F18BFF5
S11334004EF0010EA4F1FF04B6F5007F64F540749C
S113341004D25FEA4E0E6D4146EB060642EAC6212F
S113342041EA55514FEAC52040EA5E504FEACE2E9C
S1133430B4F1FD0C88BFBCF5E06F1ED8BEF1004F9F
S113344008BF5FEA500E50F1000041EB045170BD1B
S113345006F0004646EA010140EA020081EA03015F
S1133460B4EB5C04C2BFD4EB0C0541EA045170BD5B
S113347041F480114FF0000E013C00F3AB8014F1D5
S1133480360FDEBF002001F0004170BDC4F100041E
S1133490203C35DA0C341BDC04F11404C4F120059F
S11334A000FA05F320FA04F001FA05F240EA0200FA
S11334B001F0004221F0004110EBD37021FA04F630
S11334C042EB06015EEA430E08BF20EAD37070BDEA
S11334D0C4F10C04C4F1200500FA04F320FA05F049
S11334E001FA04F240EA020001F0004110EBD3704B
S11334F041F100015EEA430E08BF20EAD37070BDBB
S1133500C4F1200500FA05F24EEA020E20FA04F393
S113351001FA05F243EA020321FA04F001F0004142
S113352021FA04F220EA020000EBD3705EEA430EB3
S113353008BF20EAD37070BD94F0000F0FD101F0E2
S11335400046400041EB010111F4801F08BF013C1B
S1133550F7D041EA060195F0000F18BF704703F059
S11335600046520043EB030313F4801F08BF013DE0
S1133570F7D043EA0603704794EA0C0F0CEA13559C
S113358018BF95EA0C0F0CD050EA410618BF52EA56
S11335904306D1D181EA030101F000414FF000005C
S11335A070BD50EA410606BF1046194652EA43066A
S11335B019D094EA0C0F02D150EA013613D195EADE
S11335C00C0F05D152EA03361CBF104619460AD126
S11335D081EA030101F0004141F0FE4141F4700130
S11335E04FF0000070BD41F0FE4141F4780170BD20
S11335F070B54FF0FF0C4CF4E06C1CEA11541DBF85
S11336001CEA135594EA0C0F95EA0C0F00F0A7F886
S1133610A4EB050481EA030E52EA03354FEA0131B3
S113362000F088804FEA03334FF0805545EA1313C6
S113363043EA12634FEA022245EA111545EA10658E
S11336404FEA00260EF000419D4208BF964244F125
S1133650FD0404F5407402D25B084FEA3202B61A44
S113366065EB03055B084FEA32024FF480104FF418
S1133670002CB6EB020E75EB030E22BFB61A75468C
S113368040EA0C005B084FEA3202B6EB020E75EB1F
S1133690030E22BFB61A754640EA5C005B084FEA87
S11336A03202B6EB020E75EB030E22BFB61A754654
S11336B040EA9C005B084FEA3202B6EB020E75EB5F
S11336C0030E22BFB61A754640EADC0055EA060E20
S11336D018D04FEA051545EA16754FEA06164FEA63
S11336E0C30343EA52734FEAC2025FEA1C1CC0D10F
S11336F011F4801F0BD141EA00014FF000004FF09C
S1133700004CB6E711F4801F04BF01430020B4F15C
S1133710FD0C88BFBCF5E06F3FF6AFAEB5EB030C14
S113372004BFB6EB020C5FEA500C50F1000041EB11
S1133730045170BD0EF0004E4EEA113114EB5C04DE
S1133740C2BFD4EB0C0541EA045170BD41F48011B1
S11337504FF0000E013C90E645EA060E8DE60CEAB9
S1133760135594EA0C0F08BF95EA0C0F3FF43BAFD6
S113377094EA0C0F0AD150EA01347FF434AF95EA8D
S11337800C0F7FF425AF104619462CE795EA0C0F71
S113379006D152EA03353FF4FDAE1046194622E73E
S11337A050EA410618BF52EA43067FF4C5AE50EA18
S11337B041047FF40DAF52EA43057FF4EBAE12E708
S11337C04FEA410212F5001215D211D56FF4787345
S11337D0B3EB625212D94FEAC12343F0004343EAE8
S11337E0505311F0004F23FA02F018BF40427047C3
S11337F04FF00000704750EA013005D111F000404D
S113380008BF6FF0004070474FF00000704700BFE2
S113381080F0004002E000BF81F0004142001FBF81
S11338205FEA410392EA030F7FEA226C7FEA236C8A
S11338306AD04FEA1262D2EB1363C1BFD21841407F
S113384048404140B8BF5B42192B88BF704710F015
S1133850004F40F4000020F07F4018BF404211F0B8
S1133860004F41F4000121F07F4118BF494292EA20
S1133870030F3FD0A2F1010241FA03FC10EB0C004C
S1133880C3F1200301FA03F100F0004302D54942D9
S113389060EB4000B0F5000F13D3B0F1807F06D386
S11338A040084FEA310102F10102FE2A51D2B1F17E
S11338B0004F40EBC25008BF20F0010040EA030073
S11338C07047490040EB000010F4000FA2F1010220
S11338D0EDD1B0FA80FCACF1080CB2EB0C0200FAAA
S11338E00CF0AABF00EBC25052421843BCBFD040F8
S11338F01843704792F0000F81F4000106BF80F472
S113390000000132013BB5E74FEA41037FEA226C34
S113391018BF7FEA236C21D092EA030F04D092F0FF
S1133920000F08BF0846704790EA010F1CBF002033
S1133930704712F07F4F04D1400028BF40F0004090
S1133940704712F100723CBF00F50000704700F0B0
S1133950004343F0FE4040F4000070477FEA2262D7
S113396016BF08467FEA23630146420206BF5FEAA8
S1133970412390EA010F40F4800070474FF00003A8
S113398004E000BF10F0004348BF40425FEA000C6F
S113399008BF704743F0964301464FF000001CE017
S11339A050EA010208BF70474FF000030AE000BF6D
S11339B050EA010208BF704711F0004302D54042AB
S11339C061EB41015FEA010C02BF8446014600201D
S11339D043F0B64308BFA3F18053A3F50003BCFA38
S11339E08CF2083AA3EBC25310DB01FA02FC6344E5
S11339F000FA02FCC2F12002BCF1004F20FA02F2EC
S1133A0043EB020008BF20F00100704702F12002DE
S1133A1001FA02FCC2F1200250EA4C0021FA02F23F
S1133A2043EB020008BF20EADC7070474FF0FF0C44
S1133A301CEAD0521EBF1CEAD15392EA0C0F93EA3F
S1133A400C0F6FD01A4480EA010C400218BF5FEAE1
S1133A5041211ED04FF0006343EA501043EA511154
S1133A60A0FB01310CF00040B1F5000F3EBF49004E
S1133A7041EAD3715B0040EA010062F17F02FD2A52
S1133A801DD8B3F1004F40EBC25008BF20F0010035
S1133A90704790F0000F0CF0004C08BF49024CEA4C
S1133AA0502040EA51207F3AC2BFD2F1FF0340EADE
S1133AB0C250704740F400004FF00003013A5DDC4F
S1133AC012F1190FDCBF00F000407047C2F1000290
S1133AD0410021FA02F1C2F1200200FA02FC5FEA7D
S1133AE0310040F1000053EA4C0308BF20EADC70C7
S1133AF0704792F0000F00F0004C02BF400010F439
S1133B00000F013AF9D040EA0C0093F0000F01F0E5
S1133B10004C02BF490011F4000F013BF9D041EA07
S1133B200C018FE70CEAD15392EA0C0F18BF93EA09
S1133B300C0F0AD030F0004C18BF31F0004CD8D133
S1133B4080EA010000F00040704790F0000F17BFBA
S1133B5090F0004F084691F0000F91F0004F14D000
S1133B6092EA0C0F01D142020FD193EA0C0F03D158
S1133B704B0218BF084608D180EA010000F000405B
S1133B8040F0FE4040F40000704740F0FE4040F436
S1133B90400070474FF0FF0C1CEAD0521EBF1CEAD5
S1133BA0D15392EA0C0F93EA0C0F69D0A2EB0302F3
S1133BB080EA010C49024FEA402037D04FF080538D
S1133BC043EA111143EA10130CF000408B4238BF52
S1133BD05B0042F17D024FF4000C8B4224BF5B1A60
S1133BE040EA0C00B3EB510F24BFA3EB510340EAAE
S1133BF05C00B3EB910F24BFA3EB910340EA9C005C
S1133C00B3EBD10F24BFA3EBD10340EADC001B01CB
S1133C1018BF5FEA1C1CE0D1FD2A3FF650AF8B426F
S1133C2040EBC25008BF20F0010070470CF0004C7C
S1133C304CEA50207F32C2BFD2F1FF0340EAC250A7
S1133C40704740F400004FF00003013A37E792F068
S1133C50000F00F0004C02BF400010F4000F013AC6
S1133C60F9D040EA0C0093F0000F01F0004C02BFC1
S1133C70490011F4000F013BF9D041EA0C0195E72A
S1133C800CEAD15392EA0C0F08D142027FF47DAFC3
S1133C9093EA0C0F7FF470AF084676E793EA0C0FB3
S1133CA004D14B023FF44CAF08466EE730F0004CB1
S1133CB018BF31F0004CCAD130F000427FF45CAF41
S1133CC031F000437FF43CAF5FE700BF4FF0FF3CAF
S1133CD006E000BF4FF0010C02E000BF4FF0010C02
S1133CE04DF804CD4FEA40024FEA41037FEA226CCB
S1133CF018BF7FEA236C11D001B052EA530C18BFED
S1133D0090EA010F58BFB2EB030088BFC81738BF51
S1133D106FEAE17018BF40F0010070477FEA226C3F
S1133D2002D15FEA402C05D17FEA236CE4D15FEA3B
S1133D30412CE1D05DF8040B704700BF844608466F
S1133D406146FFE70FB5FFF7C9FF002848BF10F130
S1133D50000F0FBD4DF808EDFFF7F4FF0CBF012075
S1133D6000205DF808FB00BF4DF808EDFFF7EAFFFF
S1133D7034BF012000205DF808FB00BF4DF808EDBA
S1133D80FFF7E0FF94BF012000205DF808FB00BFAF
S1133D904DF808EDFFF7D2FF94BF012000205DF835
S1133DA008FB00BF4DF808EDFFF7C8FF34BF012042
S1133DB000205DF808FB00BF4FEA4002B2F1FE4F5D
S1133DC00FD34FF09E03B3EB12620DD94FEA0023D9
S1133DD043F0004310F0004F23FA02F018BF4042B2
S1133DE070474FF00000704712F1610F01D1420299
S1133DF005D110F0004008BF6FF0004070474FF04D
S1133E000000704708B5074B044613B10021AFF317
S1133E100080054B1868836A03B19847204600F078
S1133E2033F800BF00000000F03E00000E4B70B5F8
S1133E301E460E4C0025E41AA410A54204D056F8E0
S1133E40253098470135F8E700F020F8084B094C75
S1133E501E46E41AA4100025A54204D056F82530C5
S1133E6098470135F8E770BD740000207400002005
S1133E70740000207800002003460244934202D0DC
S1133E8003F8011BFAE77047FEE700BFF8B500BF6F
S1133E90F8BC08BC9E467047F8B500BFF8BC08BC27
S1133EA09E46704700010000000000000000060468
S1133EB000010000020000000000000000010000FA
S1133EC00000000000000604000100003D000000A6
S1133ED000000000010000000101000000000100DA
S1133EE00100000001000000000000430000000089
S10B3EF0140000200000000092
S10B3EF844C2FF7F0100000039
S1133F00006CDC0200800000030000000000803F21
S1133F100000A041000000000000000000000000BC
S1133F20000000000000000000000000000000008D
S1133F3000000000EB3E0000000000000000000054
S1133F40000000000000000000000000000000006D
S1133F50000000000000000000000000000000005D
S1133F60000000000000000000000000000000004D
S1133F700000000005010000E10000000000000056
S90301B14A
