S00E00004144435F444D412E733337ED
S113000000800020B1010000DD010000DD010000DE
S1130010DD010000DD010000DD010000DD01000064
S1130020DD010000DD010000DD010000DD01000054
S1130030DD010000DD010000DD010000DD01000044
S113004031100000DD010000DD010000DD010000D1
S1130050DD010000DD010000DD010000DD01000024
S1130060DD010000DD010000DD010000DD01000014
S1130070DD010000DD010000DD010000DD01000004
S1130080DD010000DD010000DD010000DD010000F4
S1130090DD010000DD010000DD010000DD010000E4
S11300A0DD010000DD01000061190000DD01000038
S11300B0DD010000DD010000DD010000DD010000C4
S11300C0DD010000DD010000DD010000DD010000B4
S11300D0DD010000DD010000DD010000DD010000A4
S11300E010B5054C237833B9044B13B10448AFF36E
S11300F000800123237010BD7C000020000000005C
S1130100F4280000084B10B51BB108480849AFF3A8
S113011000800848036803B910BD074B002BFBD0CF
S1130120BDE81040184700BF00000000F42800009C
S1130130800000207800002000000000154B002BF8
S113014008BF134B9D46A3F5803A00218B460F460A
S11301501348144A121A02F08FFB0F4B002B00D0E5
S113016098470E4B002B00D0984700200021040034
S11301700D000D48002802D00C48AFF3008002F0B7
S113018055FB2000290001F085FC02F03BFB00BF79
S113019000000800008000200000000000000000B3
S11301A07C000020C00000200000000000000000CF
S11301B0064880470649074A074B9A42BEBF51F892
S11301C0040B42F8040BF8E7FFF7B8FFA1030000A3
S11301D000290000000000207C000020FEE700BF92
S11301E0294AD36A03F47053B3F5805F2AD0B3F578
S11301F0005F24D0B3F5006F11D0D36803F4E0633B
S1130200B3F5007F3DD020D9B3F5806F37D0B3F577
S1130210A06F32D0B3F5407F24D0002301E01B4B04
S11302201B68194A1A4910685268C0F382300130B9
S1130230B3FBF0F002F00F03D84008607047154B91
S11302401B68EEE74FF40043EBE76BB1B3F5807F37
S1130250E3D1114B114AD86C114BB0F1985F28BF10
S11302601346DEE70F4BDCE70B4B0F4AD86C0F4B02
S1130270B0F1985F28BF1346D3E70D4BD1E70D4B80
S1130280CFE70D4BCDE700BF00800C4004000020F9
S1130290AC00002000000020B081E00F40B56400F5
S11302A0C0CF6A00809FD500804F120040420F00EB
S11302B0003FAB01406F4001C0D8A7000048704721
S11302C0006CDC02274AD36A03F47053B3F5805FF1
S11302D024D0B3F5005F1ED0B3F5006F11D0D368FE
S11302E003F4E063B3F5007F39D01AD9B3F5806F16
S11302F033D0B3F5A06F2ED0B3F5407F1FD00020CC
S113030001E0194B1868174B1B68C3F382330133A0
S1130310B0FBF3F07047154B1868F4E74FF4004056
S1130320F1E773B1B3F5807FE9D1114A114BD06C79
S1130330114AB0F1985F2CBF18461046E3E70F4806
S1130340E1E70B4A0E4BD06C0E4AB0F1985F2CBF1C
S113035018461046D7E70C48D5E70C48D3E70C48B5
S1130360D1E700BF00800C40040000200000002002
S1130370B081E00F40B56400C0CF6A00809FD50013
S1130380804F120040420F00003FAB01406F40011C
S1130390C0D8A700014B1868704700BF04000020B4
S11303A0704700BF4FF40040704700BF4FF47A70AD
S11303B0704700BF014B1868704700BF0000002061
S11303C0036823F001030360704700BF036843F030
S11303D001030360704700BF10B4046842EA0122BD
S11303E024F0080444EAC30303605DF8044BC261CB
S11303F0704700BF436823F0F7031A4342EA011130
S113040041607047F0B500F104764D7A760100231F
S113041033600C7A4B682D048A7A45EA44440F7899
S113042044EA0364CB7A91F80CC091F801E00D69B9
S113043044EA022242EA0312FC074F7B42EA8C039D
S1130440097D44EA8E722D02134345EA0745036091
S113045045603160F0BD00BF08B500F00F03013BFB
S1130460062B65D8DFE803F025394764645504009A
S1130470474BDB6A03F46033B3F5803F23D0B3F515
S1130480003F6DD0B3F5004F4AD0424B984262D042
S1130490414B984209D13E4B9B6AC3F38103022B23
S11304A017D0032B62D0012B48D1BDE80840FFF7D9
S11304B079BF374BDB6A03F47053B3F5805F4FD0D9
S11304C0B3F5005F2CD1334B984244D0324B984261
S11304D0E1D0BDE80840FFF76DBF2D4A936A03F0F1
S11304E00303022BEFD0032B1AD0012B38D0936ACD
S11304F0DA0315D4C9E7264A936A03F00C03082BE0
S1130500E1D00C2B0CD0042B2AD0936ADB0207D445
S1130510BBE71F4B1B6813F0805301D0002BB4D0F2
S11305201C4B984217D01C4B9842B4D0002008BDF5
S1130530184B98420FD0184B9842ACD0154B9842A8
S11305401DD0154B9842F1D1114B14209B6A33FAFC
S113055000F018D108BD0E4B9B6A03F003039EE71D
S11305600C4B9842F7D00C4B984294D0FFF738FECE
S11305700A4B0B4A1B6812680133D84008BD044B70
S113058010209B6AE3E7BDE80840FFF70FBF00BFF8
S113059000800C400200180003001A007800904309
S11305A0A000904300F00F000138062852D8DFE87D
S11305B000F014243551514604002B4BDB6A03F43C
S11305C06033B3F5803F49D0B3F5003F44D0B3F571
S11305D0004F0CBF082001207047234BDB6A03F453
S11305E07053B3F5805F37D0B3F5005F36D0B3F501
S11305F0006F0CBF0420052070471B4B986A00F065
S11306000300022829D003282AD0012824D09B6A79
S113061013F4803F0CBF012009207047124A936AEB
S113062003F00C03082B19D00C2B19D0042B13D076
S1130630936A13F4801F0CBF0120092070470A4BF2
S11306401B6813F080530DD0B3F1805F0CBF0820FA
S11306500120704700207047032070470220704734
S1130660062070470720704700800C4000F4781083
S1130670B0F5A01F08B500F093800ED8B0F5402F58
S11306807ED021D8B0F5003F76D0B0F5802F00F0B1
S1130690B08000287BD0002008BDB0F5001F00F01A
S11306A09A8039D8B0F5C01F61D0B0F5D01F72D090
S11306B0B0F5B01FEFD16448FFF7CEFE634B1B6F5C
S11306C0C3F30113D84008BDB0F5801F37D0B0F58F
S11306D0901F6ED0B0F5602FDDD15C4B5B6903F4E5
S11306E0E063B3F5007F00F09E8040F28A80B3F5AA
S11306F0C06F00F0A280B3F5E06F00F0A080B3F506
S1130700407FC8D1524A534BD06C534AB0F1985FE2
S113071034BF1846104608BDB0F5181F18D0B0F500
S1130720201F4FD0B0F5101FB5D14C48FFF794FEF1
S1130730464B9B6EC3F301330433D84008BD47488E
S1130740FFF78AFE414B9B6EC3F30313D84008BDE9
S11307504248FFF781FE3D4B9A6EDB6FC2F30132D4
S113076003F00703D0400133B0FBF3F008BD3B486E
S1130770BDE80840FFF770BEBDE80840FFF730BD94
S1130780324A136813F0805346D0002B83D0BDE85F
S11307900840FFF797BD2C48BDE80840FFF75CBE52
S11307A02948FFF759FE294B1B6F03F00303D84078
S11307B008BD2A48FFF750FE244B9B6EC3F3032366
S11307C0D84008BD2548FFF747FE204B9B6E03F039
S11307D00303D84008BD2248FFF7E4FE032817D0DE
S11307E00828D4D002287FF456AFBDE80840FFF7AC
S11307F0E1BDFFF767FD154B9B6803F00F03D8407D
S113080008BDF3B1B3F5807F7FF445AF154808BD4B
S1130810BDE80840FFF7C6BD536903F4E063B3F5D0
S1130820007F7FF462AF0A4A0F4BD06C0F4AB0F1DD
S1130830985F34BF1846104608BD0D4808BD0D48E2
S113084008BD0D4808BD00BF03001A0000800C401D
S1130850B081E00F40420F00804F120002001800E8
S113086007232000C0D8A700C0CF6A0040B56400A9
S1130870003FAB01406F4001809FD500F0B5C0F34D
S11308800323013B83B00446092B0CD8DFE803F0B3
S11308901C1E200B0B0D190B0B05254DC4F3043442
S11308A02C44A400216003B0F0BD224D0120224A53
S11308B0C4F30434536DDB07F2D4136D1842FCD136
S11308C0EEE71E4D1020F2E71D4DE7E71D4DE5E76D
S11308D00191FFF785FC1C4B0199DA6CC2F30742C6
S11308E04A2A0FD0792A0DD0482A184B18BF002362
S11308F09842174A174B94BF002001201060164DF0
S11309001860CBE7154E164A3369B569F66903F0EA
S11309103F07C6F3031343EA072305F0F0050B4E24
S11309202B43B3F5017F2CBF13463346E0E700BFEA
S1130930C003E410C002E41000800C400003E41083
S11309404000E4102002E410B081E00F0048E80108
S113095078009043A00090430002E410D0FF0FE021
S113096000366E0138B500F00F04631E062B6ED8F6
S1130970DFE803F0987F7F6D6D7A7200AD4A03243F
S11309804021AD4B19621368002BFCD000F07CFCB5
S1130990FFF794FC41F67132A84BDD6BDA635B68B8
S11309A003F00703042B06D8012202FA03F313F021
S11309B0130F40F06081A24B984240F2B8800522A8
S11309C09E494B6823F0070313434B600DB100238A
S11309D0CB63994B9B485C62FFF748FE9A4BDB6CF8
S11309E0C3F307434A2B00F0AA80792B00F0A780B9
S11309F0934A482B0CBF134600239842934A944BC6
S1130A0094BF002001201060186000F03DFCFFF747
S1130A10E7FB41F67132894BDC6BDA635B6803F008
S1130A200703042B06D8012202FA03F313F0130F71
S1130A3040F01C81824B984271D905227F494B6852
S1130A4023F0070313434B600CB10023CB637F4AAD
S1130A507F4B12681B6838BD032937D0082900F082
S1130A608380022943D038BD072929D0082950D0D2
S1130A7038BD01390829F6D801A353F821F000BF85
S1130A80810C00009D0C0000F90C0000670A0000B6
S1130A90670A0000B90C0000670A0000670A00003A
S1130AA0130D000002390329DDD801A353F821F006
S1130AB0DF0B00007D090000790B0000E90B00004A
S1130AC05D4A136823F080531360C0E75A4B4021FA
S1130AD0584A19621368002BFCD000F0D5FB564B22
S1130AE060211A465962D36A9903FCD5AFE7524B89
S1130AF04FF48071574A19621368002BFCD000F040
S1130B00C3FB4D4B40211A465962D36AD803FCD526
S1130B109DE7494A136843F08053136097E74E4BAF
S1130B204E4A034493428CBF0222032286E74A4B77
S1130B304A4A034493428CBF0222032240E7484CB2
S1130B40484A2369A169E46903F03F05C4F3031328
S1130B5043EA052301F0F001394C0B43B3F5017F5F
S1130B602CBF1346234648E7334B20211A465962CB
S1130B70D36A1B04FCD56AE7334BDB6CC3F307432E
S1130B804A2B00F0FB80792B00F0F880482B00F012
S1130B90F280002318462C4AD26CC2F307424A2A38
S1130BA000F0D780792A00F0D480482A18BF0123A6
S1130BB02649274A0B601360FFF7ECFB1E4A204BC3
S1130BC00224984213684FF0040196BF23F0600397
S1130BD043F0600343F020031360234AD1E61D4A27
S1130BE004244FF48071CCE6174BDB6CC3F307434A
S1130BF04A2B00F0EC80792B00F0E980482B00F0C0
S1130C00E38000231846104AD26CC2F307424A2AF2
S1130C1000F0C880792A00F0C580482A18BF012353
S1130C200A490B4A01240B601360214602F2E44294
S1130C30A7E600BF9C05904300800C4000000C40D8
S1130C400048E80100430200B081E00F78009043BF
S1130C50A0009043A4059043FFDB0BFFFF23F400A7
S1130C60D0FF0FE000366E018C0590436C4B984228
S1130C7067D90422E2E66A4B98425AD904229FE6D5
S1130C8000252B462946022C49D066498A6A22F45B
S1130C90801323F00C032B438B62D8E6614B4FF493
S1130CA08071614A19621368002BFCD000F0ECFAE1
S1130CB0082500230221E6E7FFF792FA5B4BDB6C81
S1130CC0C3F307434A2B00F09680792B00F09380FE
S1130CD0534A482B0CBF134600239842544D554B9E
S1130CE0554A94BF002001200121286018600C257A
S1130CF0116000230321C6E74A4B40214F4A196281
S1130D001368002BFCD000F0BFFA04250023012156
S1130D10B9E74FF480154FF480330021B3E741481D
S1130D201943826A22F4803323F003030B43836262
S1130D308DE6434B434A034493428CBF0022012275
S1130D403EE63F4B3F4A034493428CBF00220122BC
S1130D5074E63D490C698A69C96904F03F04C1F32A
S1130D60031141EA042102F0F0020A43B2F5017FC3
S1130D7028BF03461CE7012318460CE7324A01202A
S1130D8011699369D26901F03F01C2F3031242EA87
S1130D90012203F0F0031343B3F5017F2CBF0023BA
S1130DA00123F8E628490C698A69C96904F03F04FB
S1130DB0C1F3031141EA042102F0F0020A43B2F53F
S1130DC0017F28BF03462BE7012318461BE71E4A71
S1130DD0012011699369D26901F03F01C2F3031242
S1130DE042EA012203F0F0031343B3F5017F2CBF61
S1130DF00023012307E7144B144A1D699969DB6931
S1130E0005F03F05C3F3031343EA052301F0F001A2
S1130E10034D0B43B3F5017F2CBF13462B465CE710
S1130E200048E80100800C40A4059043B081E00F25
S1130E3078009043A0009043100890439C05904391
S1130E40FFDB0BFFFF23F400D0FF0FE000366E0141
S1130E5070B5052804D8DFE800F02D31363B3F0497
S1130E6070BD694B1B6BC3F30725684B0446DA6AF4
S1130E7002F47052B2F5805F6FD0B2F5005F6CD0AF
S1130E80B2F5006F69D0FFF719FA41F67132604B81
S1130E90DE6BDA635A6802F00702042A20D80123C1
S1130EA0934013F0130F1BD05A4B984240F2A38087
S1130EB004221FE0544BDB6ADDB2D6E7524BDB6AF7
S1130EC0C3F30725D1E7504BDB6AC3F30745CCE7EF
S1130ED04D4BDB6A1D0EC8E74B4B1B6BDDB2C4E701
S1130EE04C4B984270D84C4B4C4A034493428CBFB1
S1130EF00222032246494B6823F0070313434B6045
S1130F000EB10023CB63414AD06820F4FF6020F087
S1130F10070040EA04232B43D360FFF761F941F64D
S1130F2071323B4BDC6BDA635B6803F00703042B21
S1130F304CD8012202FA03F313F0130F46D0354BB9
S1130F40984250D9042232494B6823F007031343D3
S1130F504B6064B10023CB6309E02C49CA6822F4D6
S1130F60FF6323F0070343EA04232B43CB60FFF71B
S1130F7037F9254BDB6CC3F307434A2B0FD0792B8E
S1130F800DD0244A482B0CBF134600239842244A10
S1130F90244B94BF002001201060186070BD224CC7
S1130FA0224A2369A169E46903F03F05C4F30313EA
S1130FB043EA052301F0F001164C0B43B3F5017F1E
S1130FC02CBF13462346E1E7052293E7114B9842D1
S1130FD001D90522B7E7104B104A034493428CBF52
S1130FE002220322AFE70C4B0C4A034493428CBF0A
S1130FF000220122A7E7084B084A034493428CBF0E
S11310000022012276E700BFB081E00F00800C408F
S113101000000C400048E801FFDB0BFFFF23F40055
S113102078009043A0009043D0FF0FE000366E019B
S113103041F20C022DE9F0471B4B1C4E1B68B158C2
S1131040B26B0B401A4F03EA020423EA02084FF082
S11310500209FCB100254FF0010AE3070AFA05F280
S113106014D5B3683A6003EB0513DB6873B1197ADE
S1131070D3F800C081F001021A72BCF1000F05D050
S1131080003118BF01215A682846E047640805F179
S11310900105E2D1B9F1010F03D044464FF0010933
S11310A0D7E7BDE8F08700BF00300C4000200C40BB
S11310B008300C4010B445F60E0440F255111C4B98
S11310C01C4AD3F88400C3F88440126800F001007D
S11310D002F470541140B4F5805F196202F001010A
S11310E011D0B4F5005F1CD0B4F5006F12D011B963
S11310F00F4B02221A6218B10D4B0022C3F8842050
S11311005DF8044B7047DA6A094C1206FBD50323D9
S11311106362ECE7DA6A064C1207FBD502236362CA
S1131120E5E7DA6A024C9205FBD504236362DEE745
S113113000800C40980000201F4B70B4DB6A1F4CE9
S11311401F4923600B691F4A43F004030B611169B3
S11311509369D26901F03F01C2F3031242EA01220A
S113116003F0F0031343B3F5827F0BD3B3F5017F90
S113117008D0002230BFA2B9C0B923685B0518D5D6
S113118070BC7047104B114E196801220E40C3F811
S113119080605D6825F04605C3F8845030BF002A9E
S11311A0EAD0094B1E605D600028E6D070BCFFF7F2
S11311B081BF70BCFFF714B800800C409800002079
S11311C000ED00E0D0FF0FE000E100E09CF1FD0045
S11311D0F0B445F60E07264B264CDA6A4FF420711C
S11311E02260D3F88420C3F88470D207196248BF00
S11311F00022214948BFC3F884200B691F4A43F0E9
S113120004030B6111699369D26901F03F01C2F3D0
S1131210031242EA012203F0F0031343B3F5827F81
S11312200BD3B3F5017F08D0002230BFA2B9C0B9F7
S113123023685B0518D5F0BC7047114B114E196833
S113124001220E40C3F880605D6825F04605C3F8AE
S1131250845030BF002AEAD0094B1E605D6000282C
S1131260E6D0F0BCFFF726BFF0BCFEF7B9BF00BF65
S113127000800C409800002000ED00E0D0FF0FE05B
S113128000E100E09CF1FD00024A034BD26A1A60BF
S1131290704700BF00800C4098000020F0B5C400E7
S11312A052B1002B38D02518AD0005F18045012638
S11312B005F5C0458E402E612518AD00072905F1BE
S11312C0804517D805F5C0456F684FEA810E0F2693
S11312D006FA0EF627EA060702FA0EF63E436E6099
S11312E03AB9204403BB154B8000012203448A40D1
S11312F05A60F0BD01F1804605F5C045083EAF686F
S1131300B6004FF00F0E0EFA06FE27EA0E0702FA99
S113131006F63E43AE60E3E72718084DBF000126FA
S11313203D448E406E60C7E7800000F18040012399
S113133000F5C0408B400361F0BD00BF1060004069
S113134029B1012902D1143002607047704710306E
S11313500260704770B40D7825B98368DA0744BF1A
S1131360022343604B788E78002BCA780BBF4FF46E
S113137080634FF4A05300244FF48054002E08BF20
S113138023460AB143F400630A790AB143F40073B3
S11313904A790AB143F480738A790AB143F040036D
S11313A0CA790AB143F080034C7A0A7A2401897A13
S11313B044EA82020A431343036025B18368DB07CE
S11313C05CBF0123436070BC704700BF29B1012991
S11313D002D11C30026070477047183002607047B9
S11313E0436B002BFCD110B41E2101241F22046383
S11313F041605DF8044B0360036143618361C36131
S1131400C3628262036370470B4A5169136901F036
S11314100F01C3F3811343EA81038370136903F05B
S11314203F0343709169D36901F0F002C3F30313DE
S113143013430370704700BFD0FF0FE02DE9F0475E
S113144091F80090B9F1000F01D1022343604B7869
S11314504C7A8A7A002B18BF4FF0400ACB7A08BF27
S11314604FF0000A002C18BF4FF080080C7908BF19
S11314704FF00008002A18BF4FF0200C4A7908BF2B
S11314804FF0000C002B18BF4FF0100E0B7B08BF61
S11314904FF0000E002C14BF4FF400570027002A11
S11314A0CA7814BF4FF080560026002B8B780C7A34
S11314B04FEA024242EA03628B7942EA0402C979A2
S11314C042EA832242EA012343EA0A0343EA080880
S11314D048EA0C0C4CEA0E0E4EEA070714BF082526
S11314E000253E433543002343620560B9F1000FF4
S11314F001D001234360BDE8F08700BF70B44CF60F
S1131500806140F273754FF6FF74002302260F22A8
S113151046600360C36085610362C461436270BC5A
S113152003634363C36303644364C3640365436540
S1131530C365C0F88810036743678367C367C0F84F
S1131540842070472DE9F0437F488DB00121FFF7D7
S113155095F97E480121FFF791F97D480121FFF7B4
S11315608DF97C480221FFF7FDF97B480121FFF743
S113157085F97A480121FFF781F9794A01AB1068AE
S11315805168B2F808E003C3764F917A764E00248E
S1131590012502229970A3F800E0089404948DF8C0
S11315A023200594069409940A948DF810508DF81C
S11315B01C508DF820508DF82C5021467C626B48CD
S11315C048F201027462FFF7BBFE21462A466748CF
S11315D0FFF7FCFE2A4629466448FFF7F7FE384623
S11315E004A9FFF72BFF304608A9FFF727FF01A93D
S11315F05E48FFF7AFFE5D4BDC68012CFCD1594D12
S1131600594E686A00F030FFD6F8248007464046F9
S113161000F02AFFD5F81C908046484600F024FFCD
S11316200146404600F078FF0146384600F06CFE63
S113163080462846FFF762FF3046FFF75FFF4B48BE
S1131640FFF7CEFE40482146FFF718F93F482146F0
S1131650FFF714F93E482146FFF710F93E480021F0
S1131660FFF70CF93D480021FFF708F93948092133
S1131670FFF778F938482146FFF700F90027374883
S11316802146FFF7FBF86F623946384840F2E932E9
S11316907762FFF755FE394634482246FFF796FE37
S11316A0224632482146FFF791FE284604A9FFF757
S11316B0C5FE304608A9FFF7C1FE01A92B48FFF774
S11316C049FE2A4AD368012BFCD1264C264D606A78
S11316D000F0CAFE6F6A0646384600F0C5FED4F82C
S11316E01C900746484600F0BFFE0146384600F00D
S11316F013FF0146304600F007FE06462046FFF77A
S1131700FDFE2846FFF7FAFE1848FFF769FE124867
S11317100021FFF7B3F811480021FFF7AFF80A489A
S11317200021FFF7ABF809480021FFF7A7F80848A4
S11317300021FFF7A3F84046314600F0A1FF0C4B0F
S113174018600DB0BDE8F08340810400005204002D
S11317500062040002001800004302006026120028
S1131760A4280000000001400004014000200840BB
S1131770A000002038B50720FFF76AFBFFF7E2FE60
S1131780254B1B78022B24D8244B4FF07E5224483F
S113179002211A60FFF7E6F82148FEF767FF00EB25
S11317A0C000B0F5803F1F4D4FF0010232DB2B68C3
S11317B01344520090FBF2F1B1F5803F1C4603F153
S11317C00103F6DA18498B6E43EA04248C662A6016
S11317D00AE013480921FFF7C5F8144B0F491868AC
S11317E0104B012208601A6011480121FFF746F8E6
S11317F010480121FFF742F80F480121FFF73EF896
S11318000E480121FFF73AF8BDE838400C480121A1
S1131810FFF734B82C68D5E70C000020080000203E
S113182002001800A800002000800C40A000002046
S1131830004302006026120000D20400408104002C
S113184000920400000000002DE9F0433A4B85B0FB
S11318501A7872B639493A480B685C1C5FD050F864
S11318602210013140F8221003B962B63548FEF760
S1131870FDFE00F0F9FD344B01AD196800F04CFE9B
S113188000F09AFF00F09AFA304B804618688946B7
S113189000F094FA06460F462D4B0022186859684A
S11318A0B3F808C003C593F80AE040464946294BFB
S11318B0A5F800C085F802E000F0E6FA3B4632469F
S11318C000F00CFC00F0F2FC234C02460021204600
S11318D0FFF736FD16A3D3E900234046494600F03E
S11318E0D3FA3B46324600F0F9FB00F0DFFC01215D
S11318F002462046FFF724FD01A92046FFF72AFDF2
S1131900E36A164A43F00403E362E36A4FF080613A
S113191043F00203E362116005B0BDE8F08350F8C0
S113192022306FF0010401330C6040F822309DE74F
S1131930FCA9F1D24D62703F0C0000209C000020F5
S1131940B00000200200180008000020A8000020B9
S1131950B0280000000004400020084000E100E03E
S1131960F8B572B62D4E2E4D3368581C1CBF01338A
S11319703360EB6A2C6A1C40022C42D00423294CAD
S1131980AB62A26892070BD4274B4022C3F8802095
S11319903368224A1BB1013B136003B962B6F8BD38
S11319A0224D214A2F682046AFB1C2F8A430FEF779
S11319B007FD20461E49FEF725FD00210B460A4679
S11319C02046FEF709FD204606210A22FEF712FDF5
S11319D000232B60D8E7C2F8A030FEF7F1FC2046C4
S11319E01449FEF70FFD3B46204639463A46FEF7BA
S11319F0F3FC20460A210622FEF7FCFC01232B609F
S1131A00C2E70848FEF7E2FC074B4021054AAC62F6
S1131A10D9679368D907FCD5BAE700BF9C000020BA
S1131A20002008400010004000600040A400002096
S1131A30D4280000BC28000010B5094C09492046F0
S1131A40FEF7E0FC002120460A460B46FEF7C4FCE4
S1131A502046BDE8104006210A22FEF7CBBC00BF99
S1131A6000100040D428000010B5042002460221D2
S1131A700023FFF713FC0320062104220023FFF7B1
S1131A800DFCBDE810400220062101220023FFF7CF
S1131A9005BC00BF00B51C4B83B01C6801A8FFF750
S1131AA0B3FCB4F1805F0AD39DF80430032B06D154
S1131AB0164A136823F0500343F010031360144DC7
S1131AC0FFF758FE2E46FFF7BFFE124CFFF7CCFF80
S1131AD0FFF7B2FF2A68002A00DDFEE76B68002BDF
S1131AE005DD236923F00403236130BFF3E7B36802
S1131AF00120002B03DCFFF76BFB3268EBE7FFF7F9
S1131B001BFB3268E7E700BFFC81E00FC0800C409C
S1131B10B000002000ED00E081F0004102E000BFD1
S1131B2083F0004330B54FEA41044FEA430594EA99
S1131B30050F08BF90EA020F1FBF54EA000C55EAD4
S1131B40020C7FEA645C7FEA655C00F0E2804FEAA5
S1131B505454D4EB5555B8BF6D420CDD2C4480EA87
S1131B60020281EA030382EA000083EA010180EAB7
S1131B70020281EA0303362D88BF30BD11F0004F05
S1131B804FEA01314FF4801C4CEA113102D040423B
S1131B9061EB410113F0004F4FEA03334CEA133376
S1131BA002D0524263EB430394EA050F00F0A7808E
S1131BB0A4F10104D5F1200E0DDB02FA0EFC22FA89
S1131BC005F2801841F1000103FA0EF2801843FA7D
S1131BD005F359410EE0A5F120050EF1200E012A6E
S1131BE003FA0EFC28BF4CF0020C43FA05F3C018AC
S1131BF051EBE37101F0004507D54FF0000EDCF125
S1131C00000C7EEB00006EEB0101B1F5801F1BD3CD
S1131C10B1F5001F0CD349085FEA30004FEA3C0CD1
S1131C2004F101044FEA445212F5800F80F09A80C7
S1131C30BCF1004F08BF5FEA500C50F1000041EBCB
S1131C40045141EA050130BD5FEA4C0C404141EBCF
S1131C50010111F4801FA4F10104E9D191F0000FF6
S1131C6004BF01460020B1FA81F308BF2033A3F179
S1131C700B03B3F120020CDA0C3208DD02F1140C70
S1131C80C2F10C0201FA0CF021FA02F10CE002F1AB
S1131C901402D8BFC2F1200C01FA02F120FA0CFCA4
S1131CA0DCBF41EA0C019040E41AA2BF01EB0451ED
S1131CB0294330BD6FEA04041F3C1CDA0C340EDCEB
S1131CC004F11404C4F1200220FA04F001FA02F32E
S1131CD040EA030021FA04F345EA030130BDC4F1EC
S1131CE00C04C4F1200220FA02F001FA04F340EAE1
S1131CF00300294630BD21FA04F0294630BD94F092
S1131D00000F83F4801306BF81F480110134013D78
S1131D104EE77FEA645C18BF7FEA655C29D094EAE9
S1131D20050F08BF90EA020F05D054EA000C04BF67
S1131D301946104630BD91EA030F1EBF0021002052
S1131D4030BD5FEA545C05D14000494128BF41F0F1
S1131D50004130BD14F580043CBF01F5801130BD55
S1131D6001F0004545F0FE4141F470014FF00000E0
S1131D7030BD7FEA645C1ABF194610467FEA655C91
S1131D801CBF0B46024650EA013406BF52EA033533
S1131D9091EA030F41F4002130BD00BF90F0000F21
S1131DA004BF0021704730B54FF4806404F132045D
S1131DB04FF000054FF0000150E700BF90F0000F16
S1131DC004BF0021704730B54FF4806404F132043D
S1131DD010F0004548BF40424FF000013EE700BF0D
S1131DE042004FEAE2014FEA31014FEA02701FBF9D
S1131DF012F07F4393F07F4F81F06051704792F06F
S1131E00000F14BF93F07F4F704730B54FF46074E8
S1131E1001F0004521F0004120E700BF50EA010233
S1131E2008BF704730B54FF000050AE050EA0102E0
S1131E3008BF704730B511F0004502D5404261EB50
S1131E4041014FF4806404F132045FEA915C3FF491
S1131E50DCAE4FF003025FEADC0C18BF03325FEA2A
S1131E60DC0C18BF033202EBDC02C2F1200300FADF
S1131E7003FC20FA02F001FA03FE40EA0E0021FA04
S1131E8002F11444C1E600BF70B54FF0FF0C4CF4EE
S1131E90E06C1CEA11541DBF1CEA135594EA0C0FA4
S1131EA095EA0C0F00F0DEF82C4481EA030621EADF
S1131EB04C5123EA4C5350EA013518BF52EA03351A
S1131EC041F4801143F4801338D0A0FB02CE4FF0CC
S1131ED00005E1FB02E506F00042E0FB03E54FF0FC
S1131EE00006E1FB03569CF0000F18BF4EF0010EF4
S1131EF0A4F1FF04B6F5007F64F5407404D25FEAF0
S1131F004E0E6D4146EB060642EAC62141EA5551A2
S1131F104FEAC52040EA5E504FEACE2EB4F1FD0CE4
S1131F2088BFBCF5E06F1ED8BEF1004F08BF5FEA62
S1131F30500E50F1000041EB045170BD06F0004614
S1131F4046EA010140EA020081EA0301B4EB5C04C1
S1131F50C2BFD4EB0C0541EA045170BD41F48011B9
S1131F604FF0000E013C00F3AB8014F1360FDEBFDE
S1131F70002001F0004170BDC4F10004203C35DABA
S1131F800C341BDC04F11404C4F1200500FA05F33D
S1131F9020FA04F001FA05F240EA020001F00042DE
S1131FA021F0004110EBD37021FA04F642EB060154
S1131FB05EEA430E08BF20EAD37070BDC4F10C047E
S1131FC0C4F1200500FA04F320FA05F001FA04F242
S1131FD040EA020001F0004110EBD37041F100012E
S1131FE05EEA430E08BF20EAD37070BDC4F1200539
S1131FF000FA05F24EEA020E20FA04F301FA05F2A1
S113200043EA020321FA04F001F0004121FA04F248
S113201020EA020000EBD3705EEA430E08BF20EA18
S1132020D37070BD94F0000F0FD101F00046400052
S113203041EB010111F4801F08BF013CF7D041EAD4
S1132040060195F0000F18BF704703F000465200D8
S113205043EB030313F4801F08BF013DF7D043EAA9
S11320600603704794EA0C0F0CEA135518BF95EA5F
S11320700C0F0CD050EA410618BF52EA4306D1D1E6
S113208081EA030101F000414FF0000070BD50EA05
S1132090410606BF1046194652EA430619D094EA8F
S11320A00C0F02D150EA013613D195EA0C0F05D179
S11320B052EA03361CBF104619460AD181EA0301CD
S11320C001F0004141F0FE4141F470014FF0000085
S11320D070BD41F0FE4141F4780170BD70B54FF020
S11320E0FF0C4CF4E06C1CEA11541DBF1CEA1355A0
S11320F094EA0C0F95EA0C0F00F0A7F8A4EB050482
S113210081EA030E52EA03354FEA013100F0888078
S11321104FEA03334FF0805545EA131343EA126341
S11321204FEA022245EA111545EA10654FEA0026F6
S11321300EF000419D4208BF964244F1FD0404F5AF
S1132140407402D25B084FEA3202B61A65EB03050B
S11321505B084FEA32024FF480104FF4002CB6EBC8
S1132160020E75EB030E22BFB61A754640EA0C0048
S11321705B084FEA3202B6EB020E75EB030E22BF88
S1132180B61A754640EA5C005B084FEA3202B6EBC9
S1132190020E75EB030E22BFB61A754640EA9C0088
S11321A05B084FEA3202B6EB020E75EB030E22BF58
S11321B0B61A754640EADC0055EA060E18D04FEA16
S11321C0051545EA16754FEA06164FEAC30343EAB6
S11321D052734FEAC2025FEA1C1CC0D111F4801F83
S11321E00BD141EA00014FF000004FF0004CB6E77C
S11321F011F4801F04BF01430020B4F1FD0C88BF1B
S1132200BCF5E06F3FF6AFAEB5EB030C04BFB6EB25
S1132210020C5FEA500C50F1000041EB045170BD18
S11322200EF0004E4EEA113114EB5C04C2BFD4EB45
S11322300C0541EA045170BD41F480114FF0000EC9
S1132240013C90E645EA060E8DE60CEA135594EA45
S11322500C0F08BF95EA0C0F3FF43BAF94EA0C0F48
S11322600AD150EA01347FF434AF95EA0C0F7FF4BD
S113227025AF104619462CE795EA0C0F06D152EA11
S113228003353FF4FDAE1046194622E750EA4106F5
S113229018BF52EA43067FF4C5AE50EA41047FF406
S11322A00DAF52EA43057FF4EBAE12E74FEA410269
S11322B012F5001215D211D56FF47873B3EB625294
S11322C012D94FEAC12343F0004343EA505311F0BB
S11322D0004F23FA02F018BF404270474FF000004D
S11322E0704750EA013005D111F0004008BF6FF08B
S11322F0004070474FF00000704700BF80F000407E
S113230002E000BF81F0004142001FBF5FEA4103C9
S113231092EA030F7FEA226C7FEA236C6AD04FEAC9
S11323201262D2EB1363C1BFD2184140484041400E
S1132330B8BF5B42192B88BF704710F0004F40F4C0
S1132340000020F07F4018BF404211F0004F41F4DC
S1132350000121F07F4118BF494292EA030F3FD0A8
S1132360A2F1010241FA03FC10EB0C00C3F12003BB
S113237001FA03F100F0004302D5494260EB40004A
S1132380B0F5000F13D3B0F1807F06D340084FEAB5
S1132390310102F10102FE2A51D2B1F1004F40EBAA
S11323A0C25008BF20F0010040EA03007047490012
S11323B040EB000010F4000FA2F10102EDD1B0FADD
S11323C080FCACF1080CB2EB0C0200FA0CF0AABFD2
S11323D000EBC25052421843BCBFD0401843704770
S11323E092F0000F81F4000106BF80F40000013276
S11323F0013BB5E74FEA41037FEA226C18BF7FEA4D
S1132400236C21D092EA030F04D092F0000F08BF8E
S11324100846704790EA010F1CBF0020704712F075
S11324207F4F04D1400028BF40F00040704712F1B4
S113243000723CBF00F50000704700F0004343F019
S1132440FE4040F4000070477FEA226216BF08464F
S11324507FEA23630146420206BF5FEA412390EA12
S1132460010F40F4800070474FF0000304E000BF08
S113247010F0004348BF40425FEA000C08BF7047B9
S113248043F0964301464FF000001CE050EA01027D
S113249008BF70474FF000030AE000BF50EA010292
S11324A008BF704711F0004302D5404261EB41017F
S11324B05FEA010C02BF84460146002043F0B643A4
S11324C008BFA3F18053A3F50003BCFA8CF2083AC9
S11324D0A3EBC25310DB01FA02FC634400FA02FCD2
S11324E0C2F12002BCF1004F20FA02F243EB0200D9
S11324F008BF20F00100704702F1200201FA02FC3B
S1132500C2F1200250EA4C0021FA02F243EB02002D
S113251008BF20EADC7070474FF0FF0C1CEAD05271
S11325201EBF1CEAD15392EA0C0F93EA0C0F6FD032
S11325301A4480EA010C400218BF5FEA41211ED010
S11325404FF0006343EA501043EA5111A0FB0131FC
S11325500CF00040B1F5000F3EBF490041EAD371D1
S11325605B0040EA010062F17F02FD2A1DD8B3F14D
S1132570004F40EBC25008BF20F00100704790F0BC
S1132580000F0CF0004C08BF49024CEA502040EA0E
S113259051207F3AC2BFD2F1FF0340EAC2507047D4
S11325A040F400004FF00003013A5DDC12F1190F12
S11325B0DCBF00F000407047C2F10002410021FA84
S11325C002F1C2F1200200FA02FC5FEA310040F19C
S11325D0000053EA4C0308BF20EADC70704792F015
S11325E0000F00F0004C02BF400010F4000F013A4D
S11325F0F9D040EA0C0093F0000F01F0004C02BF48
S1132600490011F4000F013BF9D041EA0C018FE7B6
S11326100CEAD15392EA0C0F18BF93EA0C0F0AD0BC
S113262030F0004C18BF31F0004CD8D180EA0100E2
S113263000F00040704790F0000F17BF90F0004F7B
S1132640084691F0000F91F0004F14D092EA0C0F5D
S113265001D142020FD193EA0C0F03D14B0218BFF0
S1132660084608D180EA010000F0004040F0FE4036
S113267040F40000704740F0FE4040F440007047D2
S11326804FF0FF0C1CEAD0521EBF1CEAD15392EA51
S11326900C0F93EA0C0F69D0A2EB030280EA010C41
S11326A049024FEA402037D04FF0805343EA1111DA
S11326B043EA10130CF000408B4238BF5B0042F138
S11326C07D024FF4000C8B4224BF5B1A40EA0C00DD
S11326D0B3EB510F24BFA3EB510340EA5C00B3EB0F
S11326E0910F24BFA3EB910340EA9C00B3EBD10FFD
S11326F024BFA3EBD10340EADC001B0118BF5FEA4F
S11327001C1CE0D1FD2A3FF650AF8B4240EBC25077
S113271008BF20F0010070470CF0004C4CEA502038
S11327207F32C2BFD2F1FF0340EAC250704740F487
S113273000004FF00003013A37E792F0000F00F079
S1132740004C02BF400010F4000F013AF9D040EAF7
S11327500C0093F0000F01F0004C02BF490011F48B
S1132760000F013BF9D041EA0C0195E70CEAD15383
S113277092EA0C0F08D142027FF47DAF93EA0C0F6A
S11327807FF470AF084676E793EA0C0F04D14B024E
S11327903FF44CAF08466EE730F0004C18BF31F000
S11327A0004CCAD130F000427FF45CAF31F00043FA
S11327B07FF43CAF5FE700BF4FEA4002B2F1FE4F47
S11327C00FD34FF09E03B3EB12620DD94FEA0023EF
S11327D043F0004310F0004F23FA02F018BF4042C8
S11327E070474FF00000704712F1610F01D14202AF
S11327F005D110F0004008BF6FF0004070474FF063
S11328000000704708B5074B044613B10021AFF32D
S11328100080054B1868836A03B19847204600F08E
S113282033F800BF00000000F02800000E4B70B524
S11328301E460E4C0025E41AA410A54204D056F8F6
S1132840253098470135F8E700F020F8084B094C8B
S11328501E46E41AA4100025A54204D056F82530DB
S113286098470135F8E770BD700000207000002023
S1132870700000207400002003460244934202D0FA
S113288003F8011BFAE77047FEE700BFF8B500BF85
S1132890F8BC08BC9E467047F8B500BFF8BC08BC3D
S11328A09E46704701000000010100000000010085
S11328B0010000000100000003000000000100000E
S11328C00000000000000604000100003D000000BC
S11328D000000000000100000000000000000604E9
S11328E0000100000200000000000000430000009E
S10B28F01000002000000000AC
S10B28F844D8FF7F0100000039
S113290000800000006CDC020000803F0300000037
S113291000000000000000000000000000000000B3
S113292000000000000000000000000000000000A3
S1132930EC2800000000000000000000000000007F
S11329400000000000000000000000000000000083
S11329500000000000000000000000000000000073
S11329600000000000000000000000000000000063
S10F297005010000E10000000000000070
S90301B14A
